{
  "_format": "hh-sol-artifact-1",
  "contractName": "PrivateSale",
  "sourceName": "contracts/PrivateSale.sol",
  "abi": [
    {
      "inputs": [
        {
          "internalType": "address",
          "name": "_token",
          "type": "address"
        }
      ],
      "stateMutability": "nonpayable",
      "type": "constructor"
    },
    {
      "anonymous": false,
      "inputs": [
        {
          "indexed": true,
          "internalType": "address",
          "name": "sender",
          "type": "address"
        },
        {
          "indexed": true,
          "internalType": "uint256",
          "name": "id",
          "type": "uint256"
        },
        {
          "indexed": false,
          "internalType": "uint256",
          "name": "amount",
          "type": "uint256"
        },
        {
          "indexed": false,
          "internalType": "uint256",
          "name": "lockOnBlock",
          "type": "uint256"
        },
        {
          "indexed": false,
          "internalType": "uint256",
          "name": "releaseOnBlock",
          "type": "uint256"
        }
      ],
      "name": "LockTokens",
      "type": "event"
    },
    {
      "anonymous": false,
      "inputs": [
        {
          "indexed": true,
          "internalType": "address",
          "name": "previousOwner",
          "type": "address"
        },
        {
          "indexed": true,
          "internalType": "address",
          "name": "newOwner",
          "type": "address"
        }
      ],
      "name": "OwnershipTransferred",
      "type": "event"
    },
    {
      "anonymous": false,
      "inputs": [
        {
          "indexed": true,
          "internalType": "address",
          "name": "receiver",
          "type": "address"
        },
        {
          "indexed": true,
          "internalType": "uint256",
          "name": "id",
          "type": "uint256"
        },
        {
          "indexed": false,
          "internalType": "uint256",
          "name": "amount",
          "type": "uint256"
        }
      ],
      "name": "UnlockTokens",
      "type": "event"
    },
    {
      "inputs": [],
      "name": "LOCK_DURATION",
      "outputs": [
        {
          "internalType": "uint256",
          "name": "",
          "type": "uint256"
        }
      ],
      "stateMutability": "view",
      "type": "function"
    },
    {
      "inputs": [],
      "name": "fundsRaisedX8",
      "outputs": [
        {
          "internalType": "uint256",
          "name": "",
          "type": "uint256"
        }
      ],
      "stateMutability": "view",
      "type": "function"
    },
    {
      "inputs": [
        {
          "internalType": "address",
          "name": "recipient",
          "type": "address"
        },
        {
          "internalType": "uint256",
          "name": "amount",
          "type": "uint256"
        }
      ],
      "name": "order",
      "outputs": [],
      "stateMutability": "nonpayable",
      "type": "function"
    },
    {
      "inputs": [
        {
          "internalType": "uint256",
          "name": "",
          "type": "uint256"
        }
      ],
      "name": "orders",
      "outputs": [
        {
          "internalType": "address",
          "name": "beneficiary",
          "type": "address"
        },
        {
          "internalType": "uint256",
          "name": "amount",
          "type": "uint256"
        },
        {
          "internalType": "uint256",
          "name": "releaseOnBlock",
          "type": "uint256"
        },
        {
          "internalType": "bool",
          "name": "claimed",
          "type": "bool"
        }
      ],
      "stateMutability": "view",
      "type": "function"
    },
    {
      "inputs": [],
      "name": "owner",
      "outputs": [
        {
          "internalType": "address",
          "name": "",
          "type": "address"
        }
      ],
      "stateMutability": "view",
      "type": "function"
    },
    {
      "inputs": [
        {
          "internalType": "uint256",
          "name": "orderId",
          "type": "uint256"
        }
      ],
      "name": "redeem",
      "outputs": [],
      "stateMutability": "nonpayable",
      "type": "function"
    },
    {
      "inputs": [],
      "name": "renounceOwnership",
      "outputs": [],
      "stateMutability": "nonpayable",
      "type": "function"
    },
    {
      "inputs": [],
      "name": "token",
      "outputs": [
        {
          "internalType": "contract IERC20Metadata",
          "name": "",
          "type": "address"
        }
      ],
      "stateMutability": "view",
      "type": "function"
    },
    {
      "inputs": [],
      "name": "totalDistributed",
      "outputs": [
        {
          "internalType": "uint256",
          "name": "",
          "type": "uint256"
        }
      ],
      "stateMutability": "view",
      "type": "function"
    },
    {
      "inputs": [
        {
          "internalType": "address",
          "name": "newOwner",
          "type": "address"
        }
      ],
      "name": "transferOwnership",
      "outputs": [],
      "stateMutability": "nonpayable",
      "type": "function"
    }
  ],
  "bytecode": "0x60a0604052600060025534801561001557600080fd5b5060405161105b38038061105b8339818101604052602081101561003857600080fd5b505160006100446100e4565b600080546001600160a01b0319166001600160a01b0383169081178255604051929350917f8be0079c531659141344cd1fd0a4f28419497f9722a3daafe3b4186f6b6457e0908290a3506001600160a01b0381166100cf576040805162461bcd60e51b815260206004820152600360248201526249544160e81b604482015290519081900360640190fd5b60601b6001600160601b0319166080526100e8565b3390565b60805160601c610f42610119600039806102d5528061038452806103af528061080752806109a85250610f426000f3fe608060405234801561001057600080fd5b506004361061009e5760003560e01c8063a85c38ef11610066578063a85c38ef1461011f578063db006a751461016e578063efca2eed1461018b578063f2fde38b14610193578063fc0c546a146101b95761009e565b806305b102e3146100a35780633bb376a0146100d1578063485d3834146100eb578063715018a6146100f35780638da5cb5b146100fb575b600080fd5b6100cf600480360360408110156100b957600080fd5b506001600160a01b0381351690602001356101c1565b005b6100d9610572565b60408051918252519081900360200190f35b6100d9610578565b6100cf61057e565b61010361063c565b604080516001600160a01b039092168252519081900360200190f35b61013c6004803603602081101561013557600080fd5b503561064b565b604080516001600160a01b03909516855260208501939093528383019190915215156060830152519081900360800190f35b6100cf6004803603602081101561018457600080fd5b5035610682565b6100d961088c565b6100cf600480360360208110156101a957600080fd5b50356001600160a01b0316610892565b6101036109a6565b6101c96109ca565b6001600160a01b03166101da61063c565b6001600160a01b031614610235576040805162461bcd60e51b815260206004820181905260248201527f4f776e61626c653a2063616c6c6572206973206e6f7420746865206f776e6572604482015290519081900360640190fd5b6001600160a01b038216610276576040805162461bcd60e51b815260206004820152600360248201526249494160e81b604482015290519081900360640190fd5b600081116102b1576040805162461bcd60e51b815260206004820152600360248201526249544160e81b604482015290519081900360640190fd5b60006102ca6102c36101a460036109ce565b4390610a37565b9050600061037560087f00000000000000000000000000000000000000000000000000000000000000006001600160a01b031663313ce5676040518163ffffffff1660e01b815260040160206040518083038186803b15801561032c57600080fd5b505afa158015610340573d6000803e3d6000fd5b505050506040513d602081101561035657600080fd5b505160ff91900360040116600a0a61036f8560a5610a98565b906109ce565b90506103ac6001600160a01b037f000000000000000000000000000000000000000000000000000000000000000016333086610af1565b827f00000000000000000000000000000000000000000000000000000000000000006001600160a01b03166370a08231306040518263ffffffff1660e01b815260040180826001600160a01b0316815260200191505060206040518083038186803b15801561041a57600080fd5b505afa15801561042e573d6000803e3d6000fd5b505050506040513d602081101561044457600080fd5b5051101561047f576040805162461bcd60e51b81526020600482015260036024820152622722a160e91b604482015290519081900360640190fd5b604080516080810182526001600160a01b038681168252602080830187815283850187815260006060860181815260028054600190810180835584529586905297909120955186546001600160a01b0319169516949094178555905191840191909155519282019290925590516003918201805460ff19169115159190911790555461050b9084610a37565b60035560045461051b9082610a37565b6004556002546040805185815243602082015280820185905290516001600160a01b038716917f1c0faff31a4ddddbe14119049530c0e55d7f79bedfd0e3a74b16098ac66e42e8919081900360600190a350505050565b60045481565b6101a481565b6105866109ca565b6001600160a01b031661059761063c565b6001600160a01b0316146105f2576040805162461bcd60e51b815260206004820181905260248201527f4f776e61626c653a2063616c6c6572206973206e6f7420746865206f776e6572604482015290519081900360640190fd5b600080546040516001600160a01b03909116907f8be0079c531659141344cd1fd0a4f28419497f9722a3daafe3b4186f6b6457e0908390a3600080546001600160a01b0319169055565b6000546001600160a01b031690565b600160208190526000918252604090912080549181015460028201546003909201546001600160a01b039093169290919060ff1684565b6002548111156106bf576040805162461bcd60e51b8152602060048201526003602482015262494f4960e81b604482015290519081900360640190fd5b600081815260016020526040902080546001600160a01b03163314806106fd57506106e861063c565b6001600160a01b0316336001600160a01b0316145b610734576040805162461bcd60e51b81526020600482015260036024820152624e4f4f60e81b604482015290519081900360640190fd5b6000816001015411610773576040805162461bcd60e51b815260206004820152600360248201526249544160e81b604482015290519081900360640190fd5b80600201544310156107b2576040805162461bcd60e51b815260206004820152600360248201526215125360ea1b604482015290519081900360640190fd5b600381015460ff16156107f2576040805162461bcd60e51b815260206004820152600360248201526254414360e81b604482015290519081900360640190fd5b80546001820154610831916001600160a01b037f0000000000000000000000000000000000000000000000000000000000000000811692911690610b51565b60038101805460ff19166001908117909155815490820154604080519182525184926001600160a01b0316917fa9b22fc99b437cca7226a19e7018090ba9124753983abed4abc977f88a37eb56919081900360200190a35050565b60035481565b61089a6109ca565b6001600160a01b03166108ab61063c565b6001600160a01b031614610906576040805162461bcd60e51b815260206004820181905260248201527f4f776e61626c653a2063616c6c6572206973206e6f7420746865206f776e6572604482015290519081900360640190fd5b6001600160a01b03811661094b5760405162461bcd60e51b8152600401808060200182810382526026815260200180610e766026913960400191505060405180910390fd5b600080546040516001600160a01b03808516939216917f8be0079c531659141344cd1fd0a4f28419497f9722a3daafe3b4186f6b6457e091a3600080546001600160a01b0319166001600160a01b0392909216919091179055565b7f000000000000000000000000000000000000000000000000000000000000000081565b3390565b6000808211610a24576040805162461bcd60e51b815260206004820152601a60248201527f536166654d6174683a206469766973696f6e206279207a65726f000000000000604482015290519081900360640190fd5b818381610a2d57fe5b0490505b92915050565b600082820183811015610a91576040805162461bcd60e51b815260206004820152601b60248201527f536166654d6174683a206164646974696f6e206f766572666c6f770000000000604482015290519081900360640190fd5b9392505050565b600082610aa757506000610a31565b82820282848281610ab457fe5b0414610a915760405162461bcd60e51b8152600401808060200182810382526021815260200180610ec26021913960400191505060405180910390fd5b604080516001600160a01b0380861660248301528416604482015260648082018490528251808303909101815260849091019091526020810180516001600160e01b03166323b872dd60e01b179052610b4b908590610ba8565b50505050565b604080516001600160a01b038416602482015260448082018490528251808303909101815260649091019091526020810180516001600160e01b031663a9059cbb60e01b179052610ba3908490610ba8565b505050565b6000610bfd826040518060400160405280602081526020017f5361666545524332303a206c6f772d6c6576656c2063616c6c206661696c6564815250856001600160a01b0316610c599092919063ffffffff16565b805190915015610ba357808060200190516020811015610c1c57600080fd5b5051610ba35760405162461bcd60e51b815260040180806020018281038252602a815260200180610ee3602a913960400191505060405180910390fd5b6060610c688484600085610c70565b949350505050565b606082471015610cb15760405162461bcd60e51b8152600401808060200182810382526026815260200180610e9c6026913960400191505060405180910390fd5b610cba85610dcb565b610d0b576040805162461bcd60e51b815260206004820152601d60248201527f416464726573733a2063616c6c20746f206e6f6e2d636f6e7472616374000000604482015290519081900360640190fd5b600080866001600160a01b031685876040518082805190602001908083835b60208310610d495780518252601f199092019160209182019101610d2a565b6001836020036101000a03801982511681845116808217855250505050505090500191505060006040518083038185875af1925050503d8060008114610dab576040519150601f19603f3d011682016040523d82523d6000602084013e610db0565b606091505b5091509150610dc0828286610dd1565b979650505050505050565b3b151590565b60608315610de0575081610a91565b825115610df05782518084602001fd5b8160405162461bcd60e51b81526004018080602001828103825283818151815260200191508051906020019080838360005b83811015610e3a578181015183820152602001610e22565b50505050905090810190601f168015610e675780820380516001836020036101000a031916815260200191505b509250505060405180910390fdfe4f776e61626c653a206e6577206f776e657220697320746865207a65726f2061646472657373416464726573733a20696e73756666696369656e742062616c616e636520666f722063616c6c536166654d6174683a206d756c7469706c69636174696f6e206f766572666c6f775361666545524332303a204552433230206f7065726174696f6e20646964206e6f742073756363656564a2646970667358221220837173128dfab2d40c4c25dbed32092a030e0202c84301cddd08cc757cb83bfd64736f6c63430007060033",
  "linkReferences": {},
  "deployedLinkReferences": {}
}