{
  "_format": "hh-sol-artifact-1",
  "contractName": "PrivateSale",
  "sourceName": "contracts/PrivateSale.sol",
  "abi": [
    {
      "inputs": [
        {
          "internalType": "address",
          "name": "_token",
          "type": "address"
        }
      ],
      "stateMutability": "nonpayable",
      "type": "constructor"
    },
    {
      "anonymous": false,
      "inputs": [
        {
          "indexed": true,
          "internalType": "address",
          "name": "sender",
          "type": "address"
        },
        {
          "indexed": true,
          "internalType": "uint256",
          "name": "id",
          "type": "uint256"
        },
        {
          "indexed": false,
          "internalType": "uint256",
          "name": "amount",
          "type": "uint256"
        },
        {
          "indexed": false,
          "internalType": "uint256",
          "name": "lockOnBlock",
          "type": "uint256"
        },
        {
          "indexed": false,
          "internalType": "uint256",
          "name": "releaseOnBlock",
          "type": "uint256"
        }
      ],
      "name": "LockTokens",
      "type": "event"
    },
    {
      "anonymous": false,
      "inputs": [
        {
          "indexed": true,
          "internalType": "address",
          "name": "previousOwner",
          "type": "address"
        },
        {
          "indexed": true,
          "internalType": "address",
          "name": "newOwner",
          "type": "address"
        }
      ],
      "name": "OwnershipTransferred",
      "type": "event"
    },
    {
      "anonymous": false,
      "inputs": [
        {
          "indexed": true,
          "internalType": "address",
          "name": "receiver",
          "type": "address"
        },
        {
          "indexed": true,
          "internalType": "uint256",
          "name": "id",
          "type": "uint256"
        },
        {
          "indexed": false,
          "internalType": "uint256",
          "name": "amount",
          "type": "uint256"
        }
      ],
      "name": "UnlockTokens",
      "type": "event"
    },
    {
      "inputs": [],
      "name": "LOCK_DURATION",
      "outputs": [
        {
          "internalType": "uint256",
          "name": "",
          "type": "uint256"
        }
      ],
      "stateMutability": "view",
      "type": "function"
    },
    {
      "inputs": [],
      "name": "TOKEN_PRICEX4",
      "outputs": [
        {
          "internalType": "uint256",
          "name": "",
          "type": "uint256"
        }
      ],
      "stateMutability": "view",
      "type": "function"
    },
    {
      "inputs": [
        {
          "internalType": "address",
          "name": "",
          "type": "address"
        }
      ],
      "name": "balanceOf",
      "outputs": [
        {
          "internalType": "uint256",
          "name": "",
          "type": "uint256"
        }
      ],
      "stateMutability": "view",
      "type": "function"
    },
    {
      "inputs": [],
      "name": "fundsRaisedX8",
      "outputs": [
        {
          "internalType": "uint256",
          "name": "",
          "type": "uint256"
        }
      ],
      "stateMutability": "view",
      "type": "function"
    },
    {
      "inputs": [
        {
          "internalType": "address",
          "name": "investor",
          "type": "address"
        }
      ],
      "name": "investorOrderIds",
      "outputs": [
        {
          "internalType": "uint256[]",
          "name": "ids",
          "type": "uint256[]"
        }
      ],
      "stateMutability": "view",
      "type": "function"
    },
    {
      "inputs": [
        {
          "internalType": "address",
          "name": "recipient",
          "type": "address"
        },
        {
          "internalType": "uint256",
          "name": "amount",
          "type": "uint256"
        }
      ],
      "name": "order",
      "outputs": [],
      "stateMutability": "nonpayable",
      "type": "function"
    },
    {
      "inputs": [
        {
          "internalType": "uint256",
          "name": "",
          "type": "uint256"
        }
      ],
      "name": "orders",
      "outputs": [
        {
          "internalType": "address",
          "name": "beneficiary",
          "type": "address"
        },
        {
          "internalType": "uint256",
          "name": "amount",
          "type": "uint256"
        },
        {
          "internalType": "uint256",
          "name": "releaseOnBlock",
          "type": "uint256"
        },
        {
          "internalType": "bool",
          "name": "claimed",
          "type": "bool"
        }
      ],
      "stateMutability": "view",
      "type": "function"
    },
    {
      "inputs": [],
      "name": "owner",
      "outputs": [
        {
          "internalType": "address",
          "name": "",
          "type": "address"
        }
      ],
      "stateMutability": "view",
      "type": "function"
    },
    {
      "inputs": [
        {
          "internalType": "uint256",
          "name": "orderId",
          "type": "uint256"
        }
      ],
      "name": "redeem",
      "outputs": [],
      "stateMutability": "nonpayable",
      "type": "function"
    },
    {
      "inputs": [],
      "name": "renounceOwnership",
      "outputs": [],
      "stateMutability": "nonpayable",
      "type": "function"
    },
    {
      "inputs": [
        {
          "internalType": "address",
          "name": "_to",
          "type": "address"
        },
        {
          "internalType": "uint256",
          "name": "_amount",
          "type": "uint256"
        }
      ],
      "name": "rewardInvestor",
      "outputs": [],
      "stateMutability": "nonpayable",
      "type": "function"
    },
    {
      "inputs": [],
      "name": "token",
      "outputs": [
        {
          "internalType": "contract IERC20Metadata",
          "name": "",
          "type": "address"
        }
      ],
      "stateMutability": "view",
      "type": "function"
    },
    {
      "inputs": [],
      "name": "totalDistributed",
      "outputs": [
        {
          "internalType": "uint256",
          "name": "",
          "type": "uint256"
        }
      ],
      "stateMutability": "view",
      "type": "function"
    },
    {
      "inputs": [
        {
          "internalType": "address",
          "name": "newOwner",
          "type": "address"
        }
      ],
      "name": "transferOwnership",
      "outputs": [],
      "stateMutability": "nonpayable",
      "type": "function"
    }
  ],
  "bytecode": "0x60a0604052600060045534801561001557600080fd5b5060405161151b38038061151b8339818101604052602081101561003857600080fd5b505160006100446100fe565b600080546001600160a01b0319166001600160a01b0383169081178255604051929350917f8be0079c531659141344cd1fd0a4f28419497f9722a3daafe3b4186f6b6457e0908290a3506001600160a01b0381166100e9576040805162461bcd60e51b815260206004820152601560248201527f696e76616c696420746f6b656e20616464726573730000000000000000000000604482015290519081900360640190fd5b60601b6001600160601b031916608052610102565b3390565b60805160601c6113e36101386000398061040152806104b052806104db52806108315280610ba95280610d7d52506113e36000f3fe608060405234801561001057600080fd5b50600436106100ea5760003560e01c80639aeff30b1161008c578063db006a7511610066578063db006a751461028a578063efca2eed146102a7578063f2fde38b146102af578063fc0c546a146102d5576100ea565b80639aeff30b146101bd578063a85c38ef146101c5578063aa60494714610214576100ea565b8063485d3834116100c8578063485d38341461016357806370a082311461016b578063715018a6146101915780638da5cb5b14610199576100ea565b806305b102e3146100ef5780633bb376a01461011d5780633dedd93914610137575b600080fd5b61011b6004803603604081101561010557600080fd5b506001600160a01b0381351690602001356102dd565b005b610125610715565b60408051918252519081900360200190f35b61011b6004803603604081101561014d57600080fd5b506001600160a01b03813516906020013561071b565b61012561085d565b6101256004803603602081101561018157600080fd5b50356001600160a01b0316610865565b61011b610877565b6101a1610923565b604080516001600160a01b039092168252519081900360200190f35b610125610932565b6101e2600480360360208110156101db57600080fd5b5035610937565b604080516001600160a01b03909516855260208501939093528383019190915215156060830152519081900360800190f35b61023a6004803603602081101561022a57600080fd5b50356001600160a01b031661096d565b60408051602080825283518183015283519192839290830191858101910280838360005b8381101561027657818101518382015260200161025e565b505050509050019250505060405180910390f35b61011b600480360360208110156102a057600080fd5b50356109d9565b610125610c73565b61011b600480360360208110156102c557600080fd5b50356001600160a01b0316610c79565b6101a1610d7b565b6102e5610d9f565b6001600160a01b03166102f6610923565b6001600160a01b03161461033f576040805162461bcd60e51b81526020600482018190526024820152600080516020611341833981519152604482015290519081900360640190fd5b6001600160a01b03821661039a576040805162461bcd60e51b815260206004820152601860248201527f696e76616c696420696e766573746f7220616464726573730000000000000000604482015290519081900360640190fd5b600081116103e6576040805162461bcd60e51b81526020600482015260146024820152731a5b9d985b1a59081d1bdad95b88185b5bdd5b9d60621b604482015290519081900360640190fd5b60006103f6426303c26700610da3565b905060006104a160087f00000000000000000000000000000000000000000000000000000000000000006001600160a01b031663313ce5676040518163ffffffff1660e01b815260040160206040518083038186803b15801561045857600080fd5b505afa15801561046c573d6000803e3d6000fd5b505050506040513d602081101561048257600080fd5b505160ff91900360040116600a0a61049b8560a5610e06565b90610e5f565b90506104d86001600160a01b037f000000000000000000000000000000000000000000000000000000000000000016333086610ec6565b827f00000000000000000000000000000000000000000000000000000000000000006001600160a01b03166370a08231306040518263ffffffff1660e01b815260040180826001600160a01b0316815260200191505060206040518083038186803b15801561054657600080fd5b505afa15801561055a573d6000803e3d6000fd5b505050506040513d602081101561057057600080fd5b505110156105c5576040805162461bcd60e51b815260206004820152601960248201527f6e6f7420656e6f75676820746f6b656e732062616c616e636500000000000000604482015290519081900360640190fd5b604080516080810182526001600160a01b03868116825260208083018781528385018781526000606086018181526004805460019081019182905590835260039586905297909120955186546001600160a01b031916951694909417855590519484019490945592516002830155519101805460ff19169115159190911790556005546106529084610da3565b6005556001600160a01b0384166000908152600160205260409020546106789084610da3565b6001600160a01b03851660009081526001602081815260408084209490945560028152928220600454815492830182559083529290912001556006546106be9082610da3565b6006556004546040805185815242602082015280820185905290516001600160a01b038716917f1c0faff31a4ddddbe14119049530c0e55d7f79bedfd0e3a74b16098ac66e42e8919081900360600190a350505050565b60065481565b610723610d9f565b6001600160a01b0316610734610923565b6001600160a01b03161461077d576040805162461bcd60e51b81526020600482018190526024820152600080516020611341833981519152604482015290519081900360640190fd5b6001600160a01b0382166107d8576040805162461bcd60e51b815260206004820152601760248201527f696e76616c6964206163636f756e742061646472657373000000000000000000604482015290519081900360640190fd5b60008111610824576040805162461bcd60e51b8152602060048201526014602482015273696e76616c696420616d6f756e742076616c756560601b604482015290519081900360640190fd5b6108596001600160a01b037f000000000000000000000000000000000000000000000000000000000000000016338484610ec6565b5050565b6303c2670081565b60016020526000908152604090205481565b61087f610d9f565b6001600160a01b0316610890610923565b6001600160a01b0316146108d9576040805162461bcd60e51b81526020600482018190526024820152600080516020611341833981519152604482015290519081900360640190fd5b600080546040516001600160a01b03909116907f8be0079c531659141344cd1fd0a4f28419497f9722a3daafe3b4186f6b6457e0908390a3600080546001600160a01b0319169055565b6000546001600160a01b031690565b60a581565b600360208190526000918252604090912080546001820154600283015492909301546001600160a01b0390911692919060ff1684565b6001600160a01b03811660009081526002602090815260408083208054825181850281018501909352808352606094938301828280156109cc57602002820191906000526020600020905b8154815260200190600101908083116109b8575b5093979650505050505050565b600454811115610a25576040805162461bcd60e51b81526020600482015260126024820152711a5b98dbdc9c9958dd081bdc99195c881a5960721b604482015290519081900360640190fd5b600081815260036020526040902080546001600160a01b0316331480610a635750610a4e610923565b6001600160a01b0316336001600160a01b0316145b610a9e5760405162461bcd60e51b815260040180806020018281038252602a8152602001806112f6602a913960400191505060405180910390fd5b6000816001015411610ae15760405162461bcd60e51b815260040180806020018281038252602381526020018061138b6023913960400191505060405180910390fd5b8060020154421015610b3a576040805162461bcd60e51b815260206004820152601960248201527f746f6b656e73206973207374696c6c20696e206c6f636b656400000000000000604482015290519081900360640190fd5b600381015460ff1615610b94576040805162461bcd60e51b815260206004820152601960248201527f746f6b656e7320697320616c726561647920636c61696d656400000000000000604482015290519081900360640190fd5b80546001820154610bd3916001600160a01b037f0000000000000000000000000000000000000000000000000000000000000000811692911690610f26565b60038101805460ff191660019081179091558181015482546001600160a01b03166000908152602092909252604090912054610c0e91610f7d565b81546001600160a01b039081166000908152600160208181526040928390209490945584549085015482519081529151869491909316927fa9b22fc99b437cca7226a19e7018090ba9124753983abed4abc977f88a37eb569281900390910190a35050565b60055481565b610c81610d9f565b6001600160a01b0316610c92610923565b6001600160a01b031614610cdb576040805162461bcd60e51b81526020600482018190526024820152600080516020611341833981519152604482015290519081900360640190fd5b6001600160a01b038116610d205760405162461bcd60e51b81526004018080602001828103825260268152602001806112aa6026913960400191505060405180910390fd5b600080546040516001600160a01b03808516939216917f8be0079c531659141344cd1fd0a4f28419497f9722a3daafe3b4186f6b6457e091a3600080546001600160a01b0319166001600160a01b0392909216919091179055565b7f000000000000000000000000000000000000000000000000000000000000000081565b3390565b600082820183811015610dfd576040805162461bcd60e51b815260206004820152601b60248201527f536166654d6174683a206164646974696f6e206f766572666c6f770000000000604482015290519081900360640190fd5b90505b92915050565b600082610e1557506000610e00565b82820282848281610e2257fe5b0414610dfd5760405162461bcd60e51b81526004018080602001828103825260218152602001806113206021913960400191505060405180910390fd5b6000808211610eb5576040805162461bcd60e51b815260206004820152601a60248201527f536166654d6174683a206469766973696f6e206279207a65726f000000000000604482015290519081900360640190fd5b818381610ebe57fe5b049392505050565b604080516001600160a01b0380861660248301528416604482015260648082018490528251808303909101815260849091019091526020810180516001600160e01b03166323b872dd60e01b179052610f20908590610fda565b50505050565b604080516001600160a01b038416602482015260448082018490528251808303909101815260649091019091526020810180516001600160e01b031663a9059cbb60e01b179052610f78908490610fda565b505050565b600082821115610fd4576040805162461bcd60e51b815260206004820152601e60248201527f536166654d6174683a207375627472616374696f6e206f766572666c6f770000604482015290519081900360640190fd5b50900390565b600061102f826040518060400160405280602081526020017f5361666545524332303a206c6f772d6c6576656c2063616c6c206661696c6564815250856001600160a01b031661108b9092919063ffffffff16565b805190915015610f785780806020019051602081101561104e57600080fd5b5051610f785760405162461bcd60e51b815260040180806020018281038252602a815260200180611361602a913960400191505060405180910390fd5b606061109a84846000856110a4565b90505b9392505050565b6060824710156110e55760405162461bcd60e51b81526004018080602001828103825260268152602001806112d06026913960400191505060405180910390fd5b6110ee856111ff565b61113f576040805162461bcd60e51b815260206004820152601d60248201527f416464726573733a2063616c6c20746f206e6f6e2d636f6e7472616374000000604482015290519081900360640190fd5b600080866001600160a01b031685876040518082805190602001908083835b6020831061117d5780518252601f19909201916020918201910161115e565b6001836020036101000a03801982511681845116808217855250505050505090500191505060006040518083038185875af1925050503d80600081146111df576040519150601f19603f3d011682016040523d82523d6000602084013e6111e4565b606091505b50915091506111f4828286611205565b979650505050505050565b3b151590565b6060831561121457508161109d565b8251156112245782518084602001fd5b8160405162461bcd60e51b81526004018080602001828103825283818151815260200191508051906020019080838360005b8381101561126e578181015183820152602001611256565b50505050905090810190601f16801561129b5780820380516001836020036101000a031916815260200191505b509250505060405180910390fdfe4f776e61626c653a206e6577206f776e657220697320746865207a65726f2061646472657373416464726573733a20696e73756666696369656e742062616c616e636520666f722063616c6c6e6f74206f726465722062656e6566696369617279206f72206f776e6572206f6620636f6e7472616374536166654d6174683a206d756c7469706c69636174696f6e206f766572666c6f774f776e61626c653a2063616c6c6572206973206e6f7420746865206f776e65725361666545524332303a204552433230206f7065726174696f6e20646964206e6f742073756363656564696e73756666696369656e7420746f6b656e20616d6f756e7420746f2072656465656da26469706673582212203f4dfc74873e75b5a6499d562750dcf27477bdc814c6e4fa7878393d7d52ca0264736f6c63430007060033",
  "linkReferences": {},
  "deployedLinkReferences": {}
}