{
  "_format": "hh-sol-artifact-1",
  "contractName": "PrivateSale",
  "sourceName": "contracts/PrivateSale.sol",
  "abi": [
    {
      "inputs": [
        {
          "internalType": "address",
          "name": "_token",
          "type": "address"
        }
      ],
      "stateMutability": "nonpayable",
      "type": "constructor"
    },
    {
      "anonymous": false,
      "inputs": [
        {
          "indexed": true,
          "internalType": "address",
          "name": "sender",
          "type": "address"
        },
        {
          "indexed": true,
          "internalType": "uint256",
          "name": "id",
          "type": "uint256"
        },
        {
          "indexed": false,
          "internalType": "uint256",
          "name": "amount",
          "type": "uint256"
        },
        {
          "indexed": false,
          "internalType": "uint256",
          "name": "lockOnBlock",
          "type": "uint256"
        },
        {
          "indexed": false,
          "internalType": "uint256",
          "name": "releaseOnBlock",
          "type": "uint256"
        }
      ],
      "name": "LockTokens",
      "type": "event"
    },
    {
      "anonymous": false,
      "inputs": [
        {
          "indexed": true,
          "internalType": "address",
          "name": "previousOwner",
          "type": "address"
        },
        {
          "indexed": true,
          "internalType": "address",
          "name": "newOwner",
          "type": "address"
        }
      ],
      "name": "OwnershipTransferred",
      "type": "event"
    },
    {
      "anonymous": false,
      "inputs": [
        {
          "indexed": true,
          "internalType": "address",
          "name": "receiver",
          "type": "address"
        },
        {
          "indexed": true,
          "internalType": "uint256",
          "name": "id",
          "type": "uint256"
        },
        {
          "indexed": false,
          "internalType": "uint256",
          "name": "amount",
          "type": "uint256"
        }
      ],
      "name": "UnlockTokens",
      "type": "event"
    },
    {
      "inputs": [],
      "name": "LOCK_DURATION",
      "outputs": [
        {
          "internalType": "uint256",
          "name": "",
          "type": "uint256"
        }
      ],
      "stateMutability": "view",
      "type": "function"
    },
    {
      "inputs": [],
      "name": "TOKEN_PRICEX4",
      "outputs": [
        {
          "internalType": "uint256",
          "name": "",
          "type": "uint256"
        }
      ],
      "stateMutability": "view",
      "type": "function"
    },
    {
      "inputs": [
        {
          "internalType": "address",
          "name": "",
          "type": "address"
        }
      ],
      "name": "balanceOf",
      "outputs": [
        {
          "internalType": "uint256",
          "name": "",
          "type": "uint256"
        }
      ],
      "stateMutability": "view",
      "type": "function"
    },
    {
      "inputs": [],
      "name": "fundsRaisedX8",
      "outputs": [
        {
          "internalType": "uint256",
          "name": "",
          "type": "uint256"
        }
      ],
      "stateMutability": "view",
      "type": "function"
    },
    {
      "inputs": [
        {
          "internalType": "address",
          "name": "investor",
          "type": "address"
        }
      ],
      "name": "investorOrderIds",
      "outputs": [
        {
          "internalType": "uint256[]",
          "name": "ids",
          "type": "uint256[]"
        }
      ],
      "stateMutability": "view",
      "type": "function"
    },
    {
      "inputs": [
        {
          "internalType": "address",
          "name": "recipient",
          "type": "address"
        },
        {
          "internalType": "uint256",
          "name": "amount",
          "type": "uint256"
        }
      ],
      "name": "order",
      "outputs": [],
      "stateMutability": "nonpayable",
      "type": "function"
    },
    {
      "inputs": [
        {
          "internalType": "uint256",
          "name": "",
          "type": "uint256"
        }
      ],
      "name": "orders",
      "outputs": [
        {
          "internalType": "address",
          "name": "beneficiary",
          "type": "address"
        },
        {
          "internalType": "uint256",
          "name": "amount",
          "type": "uint256"
        },
        {
          "internalType": "uint256",
          "name": "releaseOnBlock",
          "type": "uint256"
        },
        {
          "internalType": "bool",
          "name": "claimed",
          "type": "bool"
        }
      ],
      "stateMutability": "view",
      "type": "function"
    },
    {
      "inputs": [],
      "name": "owner",
      "outputs": [
        {
          "internalType": "address",
          "name": "",
          "type": "address"
        }
      ],
      "stateMutability": "view",
      "type": "function"
    },
    {
      "inputs": [
        {
          "internalType": "uint256",
          "name": "orderId",
          "type": "uint256"
        }
      ],
      "name": "redeem",
      "outputs": [],
      "stateMutability": "nonpayable",
      "type": "function"
    },
    {
      "inputs": [],
      "name": "renounceOwnership",
      "outputs": [],
      "stateMutability": "nonpayable",
      "type": "function"
    },
    {
      "inputs": [],
      "name": "token",
      "outputs": [
        {
          "internalType": "contract IERC20Metadata",
          "name": "",
          "type": "address"
        }
      ],
      "stateMutability": "view",
      "type": "function"
    },
    {
      "inputs": [],
      "name": "totalDistributed",
      "outputs": [
        {
          "internalType": "uint256",
          "name": "",
          "type": "uint256"
        }
      ],
      "stateMutability": "view",
      "type": "function"
    },
    {
      "inputs": [
        {
          "internalType": "address",
          "name": "newOwner",
          "type": "address"
        }
      ],
      "name": "transferOwnership",
      "outputs": [],
      "stateMutability": "nonpayable",
      "type": "function"
    }
  ],
  "bytecode": "0x60a0604052600060045534801561001557600080fd5b506040516112b13803806112b18339818101604052602081101561003857600080fd5b505160006100446100e4565b600080546001600160a01b0319166001600160a01b0383169081178255604051929350917f8be0079c531659141344cd1fd0a4f28419497f9722a3daafe3b4186f6b6457e0908290a3506001600160a01b0381166100cf576040805162461bcd60e51b815260206004820152600360248201526249544160e81b604482015290519081900360640190fd5b60601b6001600160601b0319166080526100e8565b3390565b60805160601c611198610119600039806103aa5280610459528061048452806109bb5280610ba152506111986000f3fe608060405234801561001057600080fd5b50600436106100cf5760003560e01c80639aeff30b1161008c578063db006a7511610066578063db006a7514610243578063efca2eed14610260578063f2fde38b14610268578063fc0c546a1461028e576100cf565b80639aeff30b14610176578063a85c38ef1461017e578063aa604947146101cd576100cf565b806305b102e3146100d45780633bb376a014610102578063485d38341461011c57806370a0823114610124578063715018a61461014a5780638da5cb5b14610152575b600080fd5b610100600480360360408110156100ea57600080fd5b506001600160a01b038135169060200135610296565b005b61010a6106a4565b60408051918252519081900360200190f35b61010a6106aa565b61010a6004803603602081101561013a57600080fd5b50356001600160a01b03166106b0565b6101006106c2565b61015a610780565b604080516001600160a01b039092168252519081900360200190f35b61010a61078f565b61019b6004803603602081101561019457600080fd5b5035610794565b604080516001600160a01b03909516855260208501939093528383019190915215156060830152519081900360800190f35b6101f3600480360360208110156101e357600080fd5b50356001600160a01b03166107ca565b60408051602080825283518183015283519192839290830191858101910280838360005b8381101561022f578181015183820152602001610217565b505050509050019250505060405180910390f35b6101006004803603602081101561025957600080fd5b5035610836565b61010a610a85565b6101006004803603602081101561027e57600080fd5b50356001600160a01b0316610a8b565b61015a610b9f565b61029e610bc3565b6001600160a01b03166102af610780565b6001600160a01b03161461030a576040805162461bcd60e51b815260206004820181905260248201527f4f776e61626c653a2063616c6c6572206973206e6f7420746865206f776e6572604482015290519081900360640190fd5b6001600160a01b03821661034b576040805162461bcd60e51b815260206004820152600360248201526249494160e81b604482015290519081900360640190fd5b60008111610386576040805162461bcd60e51b815260206004820152600360248201526249544160e81b604482015290519081900360640190fd5b600061039f6103986101a46003610bc7565b4390610c30565b9050600061044a60087f00000000000000000000000000000000000000000000000000000000000000006001600160a01b031663313ce5676040518163ffffffff1660e01b815260040160206040518083038186803b15801561040157600080fd5b505afa158015610415573d6000803e3d6000fd5b505050506040513d602081101561042b57600080fd5b505160ff91900360040116600a0a6104448560a5610c91565b90610bc7565b90506104816001600160a01b037f000000000000000000000000000000000000000000000000000000000000000016333086610cea565b827f00000000000000000000000000000000000000000000000000000000000000006001600160a01b03166370a08231306040518263ffffffff1660e01b815260040180826001600160a01b0316815260200191505060206040518083038186803b1580156104ef57600080fd5b505afa158015610503573d6000803e3d6000fd5b505050506040513d602081101561051957600080fd5b50511015610554576040805162461bcd60e51b81526020600482015260036024820152622722a160e91b604482015290519081900360640190fd5b604080516080810182526001600160a01b03868116825260208083018781528385018781526000606086018181526004805460019081019182905590835260039586905297909120955186546001600160a01b031916951694909417855590519484019490945592516002830155519101805460ff19169115159190911790556005546105e19084610c30565b6005556001600160a01b0384166000908152600160205260409020546106079084610c30565b6001600160a01b038516600090815260016020818152604080842094909455600281529282206004548154928301825590835292909120015560065461064d9082610c30565b6006556004546040805185815243602082015280820185905290516001600160a01b038716917f1c0faff31a4ddddbe14119049530c0e55d7f79bedfd0e3a74b16098ac66e42e8919081900360600190a350505050565b60065481565b6101a481565b60016020526000908152604090205481565b6106ca610bc3565b6001600160a01b03166106db610780565b6001600160a01b031614610736576040805162461bcd60e51b815260206004820181905260248201527f4f776e61626c653a2063616c6c6572206973206e6f7420746865206f776e6572604482015290519081900360640190fd5b600080546040516001600160a01b03909116907f8be0079c531659141344cd1fd0a4f28419497f9722a3daafe3b4186f6b6457e0908390a3600080546001600160a01b0319169055565b6000546001600160a01b031690565b60a581565b600360208190526000918252604090912080546001820154600283015492909301546001600160a01b0390911692919060ff1684565b6001600160a01b038116600090815260026020908152604080832080548251818502810185019093528083526060949383018282801561082957602002820191906000526020600020905b815481526020019060010190808311610815575b5093979650505050505050565b600454811115610873576040805162461bcd60e51b8152602060048201526003602482015262494f4960e81b604482015290519081900360640190fd5b600081815260036020526040902080546001600160a01b03163314806108b1575061089c610780565b6001600160a01b0316336001600160a01b0316145b6108e8576040805162461bcd60e51b81526020600482015260036024820152624e4f4f60e81b604482015290519081900360640190fd5b6000816001015411610927576040805162461bcd60e51b815260206004820152600360248201526249544160e81b604482015290519081900360640190fd5b8060020154431015610966576040805162461bcd60e51b815260206004820152600360248201526215125360ea1b604482015290519081900360640190fd5b600381015460ff16156109a6576040805162461bcd60e51b815260206004820152600360248201526254414360e81b604482015290519081900360640190fd5b805460018201546109e5916001600160a01b037f0000000000000000000000000000000000000000000000000000000000000000811692911690610d4a565b60038101805460ff191660019081179091558181015482546001600160a01b03166000908152602092909252604090912054610a2091610da1565b81546001600160a01b039081166000908152600160208181526040928390209490945584549085015482519081529151869491909316927fa9b22fc99b437cca7226a19e7018090ba9124753983abed4abc977f88a37eb569281900390910190a35050565b60055481565b610a93610bc3565b6001600160a01b0316610aa4610780565b6001600160a01b031614610aff576040805162461bcd60e51b815260206004820181905260248201527f4f776e61626c653a2063616c6c6572206973206e6f7420746865206f776e6572604482015290519081900360640190fd5b6001600160a01b038116610b445760405162461bcd60e51b81526004018080602001828103825260268152602001806110cc6026913960400191505060405180910390fd5b600080546040516001600160a01b03808516939216917f8be0079c531659141344cd1fd0a4f28419497f9722a3daafe3b4186f6b6457e091a3600080546001600160a01b0319166001600160a01b0392909216919091179055565b7f000000000000000000000000000000000000000000000000000000000000000081565b3390565b6000808211610c1d576040805162461bcd60e51b815260206004820152601a60248201527f536166654d6174683a206469766973696f6e206279207a65726f000000000000604482015290519081900360640190fd5b818381610c2657fe5b0490505b92915050565b600082820183811015610c8a576040805162461bcd60e51b815260206004820152601b60248201527f536166654d6174683a206164646974696f6e206f766572666c6f770000000000604482015290519081900360640190fd5b9392505050565b600082610ca057506000610c2a565b82820282848281610cad57fe5b0414610c8a5760405162461bcd60e51b81526004018080602001828103825260218152602001806111186021913960400191505060405180910390fd5b604080516001600160a01b0380861660248301528416604482015260648082018490528251808303909101815260849091019091526020810180516001600160e01b03166323b872dd60e01b179052610d44908590610dfe565b50505050565b604080516001600160a01b038416602482015260448082018490528251808303909101815260649091019091526020810180516001600160e01b031663a9059cbb60e01b179052610d9c908490610dfe565b505050565b600082821115610df8576040805162461bcd60e51b815260206004820152601e60248201527f536166654d6174683a207375627472616374696f6e206f766572666c6f770000604482015290519081900360640190fd5b50900390565b6000610e53826040518060400160405280602081526020017f5361666545524332303a206c6f772d6c6576656c2063616c6c206661696c6564815250856001600160a01b0316610eaf9092919063ffffffff16565b805190915015610d9c57808060200190516020811015610e7257600080fd5b5051610d9c5760405162461bcd60e51b815260040180806020018281038252602a815260200180611139602a913960400191505060405180910390fd5b6060610ebe8484600085610ec6565b949350505050565b606082471015610f075760405162461bcd60e51b81526004018080602001828103825260268152602001806110f26026913960400191505060405180910390fd5b610f1085611021565b610f61576040805162461bcd60e51b815260206004820152601d60248201527f416464726573733a2063616c6c20746f206e6f6e2d636f6e7472616374000000604482015290519081900360640190fd5b600080866001600160a01b031685876040518082805190602001908083835b60208310610f9f5780518252601f199092019160209182019101610f80565b6001836020036101000a03801982511681845116808217855250505050505090500191505060006040518083038185875af1925050503d8060008114611001576040519150601f19603f3d011682016040523d82523d6000602084013e611006565b606091505b5091509150611016828286611027565b979650505050505050565b3b151590565b60608315611036575081610c8a565b8251156110465782518084602001fd5b8160405162461bcd60e51b81526004018080602001828103825283818151815260200191508051906020019080838360005b83811015611090578181015183820152602001611078565b50505050905090810190601f1680156110bd5780820380516001836020036101000a031916815260200191505b509250505060405180910390fdfe4f776e61626c653a206e6577206f776e657220697320746865207a65726f2061646472657373416464726573733a20696e73756666696369656e742062616c616e636520666f722063616c6c536166654d6174683a206d756c7469706c69636174696f6e206f766572666c6f775361666545524332303a204552433230206f7065726174696f6e20646964206e6f742073756363656564a26469706673582212201d762725f7c83d554aff253502312e218e3cc4ef92b33909cdc996ee6a59470a64736f6c63430007060033",
  "linkReferences": {},
  "deployedLinkReferences": {}
}