{
  "_format": "hh-sol-artifact-1",
  "contractName": "PrivateSaleSEL",
  "sourceName": "contracts/PrivateSaleSEL.sol",
  "abi": [
    {
      "anonymous": false,
      "inputs": [
        {
          "indexed": true,
          "internalType": "address",
          "name": "sender",
          "type": "address"
        },
        {
          "indexed": true,
          "internalType": "uint256",
          "name": "id",
          "type": "uint256"
        },
        {
          "indexed": false,
          "internalType": "uint256",
          "name": "amount",
          "type": "uint256"
        },
        {
          "indexed": false,
          "internalType": "uint256",
          "name": "lockOnBlock",
          "type": "uint256"
        },
        {
          "indexed": false,
          "internalType": "uint256",
          "name": "releaseOnBlock",
          "type": "uint256"
        }
      ],
      "name": "LockTokens",
      "type": "event"
    },
    {
      "anonymous": false,
      "inputs": [
        {
          "indexed": true,
          "internalType": "address",
          "name": "previousOwner",
          "type": "address"
        },
        {
          "indexed": true,
          "internalType": "address",
          "name": "newOwner",
          "type": "address"
        }
      ],
      "name": "OwnershipTransferred",
      "type": "event"
    },
    {
      "anonymous": false,
      "inputs": [
        {
          "indexed": true,
          "internalType": "address",
          "name": "receiver",
          "type": "address"
        },
        {
          "indexed": true,
          "internalType": "uint256",
          "name": "id",
          "type": "uint256"
        },
        {
          "indexed": false,
          "internalType": "uint256",
          "name": "amount",
          "type": "uint256"
        }
      ],
      "name": "UnlockTokens",
      "type": "event"
    },
    {
      "inputs": [],
      "name": "LOCK_DURATION",
      "outputs": [
        {
          "internalType": "uint256",
          "name": "",
          "type": "uint256"
        }
      ],
      "stateMutability": "view",
      "type": "function"
    },
    {
      "inputs": [
        {
          "internalType": "address",
          "name": "",
          "type": "address"
        }
      ],
      "name": "balanceOf",
      "outputs": [
        {
          "internalType": "uint256",
          "name": "",
          "type": "uint256"
        }
      ],
      "stateMutability": "view",
      "type": "function"
    },
    {
      "inputs": [
        {
          "internalType": "address",
          "name": "investor",
          "type": "address"
        }
      ],
      "name": "investorOrderIds",
      "outputs": [
        {
          "internalType": "uint256[]",
          "name": "ids",
          "type": "uint256[]"
        }
      ],
      "stateMutability": "view",
      "type": "function"
    },
    {
      "inputs": [
        {
          "internalType": "address payable",
          "name": "recipient",
          "type": "address"
        }
      ],
      "name": "order",
      "outputs": [],
      "stateMutability": "payable",
      "type": "function"
    },
    {
      "inputs": [],
      "name": "orderCount",
      "outputs": [
        {
          "internalType": "uint256",
          "name": "",
          "type": "uint256"
        }
      ],
      "stateMutability": "view",
      "type": "function"
    },
    {
      "inputs": [
        {
          "internalType": "uint256",
          "name": "",
          "type": "uint256"
        }
      ],
      "name": "orders",
      "outputs": [
        {
          "internalType": "address payable",
          "name": "beneficiary",
          "type": "address"
        },
        {
          "internalType": "uint256",
          "name": "amount",
          "type": "uint256"
        },
        {
          "internalType": "uint256",
          "name": "releaseOnBlock",
          "type": "uint256"
        },
        {
          "internalType": "bool",
          "name": "claimed",
          "type": "bool"
        }
      ],
      "stateMutability": "view",
      "type": "function"
    },
    {
      "inputs": [],
      "name": "owner",
      "outputs": [
        {
          "internalType": "address",
          "name": "",
          "type": "address"
        }
      ],
      "stateMutability": "view",
      "type": "function"
    },
    {
      "inputs": [
        {
          "internalType": "uint256",
          "name": "orderId",
          "type": "uint256"
        }
      ],
      "name": "redeem",
      "outputs": [],
      "stateMutability": "nonpayable",
      "type": "function"
    },
    {
      "inputs": [],
      "name": "renounceOwnership",
      "outputs": [],
      "stateMutability": "nonpayable",
      "type": "function"
    },
    {
      "inputs": [
        {
          "internalType": "address",
          "name": "newOwner",
          "type": "address"
        }
      ],
      "name": "transferOwnership",
      "outputs": [],
      "stateMutability": "nonpayable",
      "type": "function"
    }
  ],
  "bytecode": "0x6080604052600060045534801561001557600080fd5b50600061002061006f565b600080546001600160a01b0319166001600160a01b0383169081178255604051929350917f8be0079c531659141344cd1fd0a4f28419497f9722a3daafe3b4186f6b6457e0908290a350610073565b3390565b610c41806100826000396000f3fe6080604052600436106100915760003560e01c8063a85c38ef11610059578063a85c38ef1461014d578063aa604947146101a9578063b7f84d971461022c578063db006a7514610252578063f2fde38b1461027c57610091565b80632453ffa814610096578063485d3834146100bd57806370a08231146100d2578063715018a6146101055780638da5cb5b1461011c575b600080fd5b3480156100a257600080fd5b506100ab6102af565b60408051918252519081900360200190f35b3480156100c957600080fd5b506100ab6102b5565b3480156100de57600080fd5b506100ab600480360360208110156100f557600080fd5b50356001600160a01b03166102bc565b34801561011157600080fd5b5061011a6102ce565b005b34801561012857600080fd5b5061013161038c565b604080516001600160a01b039092168252519081900360200190f35b34801561015957600080fd5b506101776004803603602081101561017057600080fd5b503561039b565b604080516001600160a01b03909516855260208501939093528383019190915215156060830152519081900360800190f35b3480156101b557600080fd5b506101dc600480360360208110156101cc57600080fd5b50356001600160a01b03166103d1565b60408051602080825283518183015283519192839290830191858101910280838360005b83811015610218578181015183820152602001610200565b505050509050019250505060405180910390f35b61011a6004803603602081101561024257600080fd5b50356001600160a01b031661043d565b34801561025e57600080fd5b5061011a6004803603602081101561027557600080fd5b5035610684565b34801561028857600080fd5b5061011a6004803603602081101561029f57600080fd5b50356001600160a01b03166108c1565b60045481565b62ed4e0081565b60016020526000908152604090205481565b6102d66109d5565b6001600160a01b03166102e761038c565b6001600160a01b031614610342576040805162461bcd60e51b815260206004820181905260248201527f4f776e61626c653a2063616c6c6572206973206e6f7420746865206f776e6572604482015290519081900360640190fd5b600080546040516001600160a01b03909116907f8be0079c531659141344cd1fd0a4f28419497f9722a3daafe3b4186f6b6457e0908390a3600080546001600160a01b0319169055565b6000546001600160a01b031690565b600360208190526000918252604090912080546001820154600283015492909301546001600160a01b0390911692919060ff1684565b6001600160a01b038116600090815260026020908152604080832080548251818502810185019093528083526060949383018282801561043057602002820191906000526020600020905b81548152602001906001019080831161041c575b5093979650505050505050565b6104456109d5565b6001600160a01b031661045661038c565b6001600160a01b0316146104b1576040805162461bcd60e51b815260206004820181905260248201527f4f776e61626c653a2063616c6c6572206973206e6f7420746865206f776e6572604482015290519081900360640190fd5b6001600160a01b03811661050c576040805162461bcd60e51b815260206004820152601860248201527f696e76616c696420696e766573746f7220616464726573730000000000000000604482015290519081900360640190fd5b60003411610558576040805162461bcd60e51b81526020600482015260146024820152731a5b9d985b1a59081d1bdad95b88185b5bdd5b9d60621b604482015290519081900360640190fd5b60006105674262ed4e006109d9565b604080516080810182526001600160a01b038581168083523460208085018281528587018881526000606088018181526004805460019081019182905590835260038087528b84209a518b546001600160a01b0319169a16999099178a5593518985015591516002890155905196909501805460ff191696151596909617909555918352929052919091205491925061060091906109d9565b6001600160a01b038316600081815260016020818152604080842095909555600281528483206004805482549485018355918552938290209092019190915590548351348152429281019290925281840185905292517f1c0faff31a4ddddbe14119049530c0e55d7f79bedfd0e3a74b16098ac66e42e89181900360600190a35050565b6004548111156106db576040805162461bcd60e51b815260206004820152601960248201527f746865206f7264657220494420697320696e636f727265637400000000000000604482015290519081900360640190fd5b600081815260036020526040902080546001600160a01b0316331480610719575061070461038c565b6001600160a01b0316336001600160a01b0316145b6107545760405162461bcd60e51b815260040180806020018281038252602a815260200180610be2602a913960400191505060405180910390fd5b80600201544210156107ad576040805162461bcd60e51b815260206004820152601760248201527f746f6b656e7320617265206265696e67206c6f636b6564000000000000000000604482015290519081900360640190fd5b600381015460ff1615610807576040805162461bcd60e51b815260206004820152601e60248201527f746f6b656e732061726520726561647920746f20626520636c61696d65640000604482015290519081900360640190fd5b80546001820154610821916001600160a01b031690610a3a565b60038101805460ff191660019081179091558181015482546001600160a01b0316600090815260209290925260409091205461085c91610b24565b81546001600160a01b039081166000908152600160208181526040928390209490945584549085015482519081529151869491909316927fa9b22fc99b437cca7226a19e7018090ba9124753983abed4abc977f88a37eb569281900390910190a35050565b6108c96109d5565b6001600160a01b03166108da61038c565b6001600160a01b031614610935576040805162461bcd60e51b815260206004820181905260248201527f4f776e61626c653a2063616c6c6572206973206e6f7420746865206f776e6572604482015290519081900360640190fd5b6001600160a01b03811661097a5760405162461bcd60e51b8152600401808060200182810382526026815260200180610b826026913960400191505060405180910390fd5b600080546040516001600160a01b03808516939216917f8be0079c531659141344cd1fd0a4f28419497f9722a3daafe3b4186f6b6457e091a3600080546001600160a01b0319166001600160a01b0392909216919091179055565b3390565b600082820183811015610a33576040805162461bcd60e51b815260206004820152601b60248201527f536166654d6174683a206164646974696f6e206f766572666c6f770000000000604482015290519081900360640190fd5b9392505050565b80471015610a8f576040805162461bcd60e51b815260206004820152601d60248201527f416464726573733a20696e73756666696369656e742062616c616e6365000000604482015290519081900360640190fd5b6040516000906001600160a01b0384169083908381818185875af1925050503d8060008114610ada576040519150601f19603f3d011682016040523d82523d6000602084013e610adf565b606091505b5050905080610b1f5760405162461bcd60e51b815260040180806020018281038252603a815260200180610ba8603a913960400191505060405180910390fd5b505050565b600082821115610b7b576040805162461bcd60e51b815260206004820152601e60248201527f536166654d6174683a207375627472616374696f6e206f766572666c6f770000604482015290519081900360640190fd5b5090039056fe4f776e61626c653a206e6577206f776e657220697320746865207a65726f2061646472657373416464726573733a20756e61626c6520746f2073656e642076616c75652c20726563697069656e74206d617920686176652072657665727465646e6f74206f726465722062656e6566696369617279206f72206f776e6572206f6620636f6e7472616374a264697066735822122014e2f9830992e2a30608ff17e93d7eee7486d2c42b69e32a02580b01bbd63d1564736f6c63430007060033",
  "linkReferences": {},
  "deployedLinkReferences": {}
}