{
  "_format": "hh-sol-artifact-1",
  "contractName": "Presale",
  "sourceName": "contracts/Presale.sol",
  "abi": [
    {
      "inputs": [
        {
          "internalType": "address",
          "name": "_token",
          "type": "address"
        },
        {
          "internalType": "address",
          "name": "_priceFeed",
          "type": "address"
        },
        {
          "internalType": "uint256",
          "name": "_notBeforeBlock",
          "type": "uint256"
        },
        {
          "internalType": "uint256",
          "name": "_notAfterBlock",
          "type": "uint256"
        }
      ],
      "stateMutability": "nonpayable",
      "type": "constructor"
    },
    {
      "anonymous": false,
      "inputs": [
        {
          "indexed": true,
          "internalType": "address",
          "name": "sender",
          "type": "address"
        },
        {
          "indexed": true,
          "internalType": "uint256",
          "name": "id",
          "type": "uint256"
        },
        {
          "indexed": false,
          "internalType": "uint256",
          "name": "amount",
          "type": "uint256"
        },
        {
          "indexed": false,
          "internalType": "uint256",
          "name": "lockOnBlock",
          "type": "uint256"
        },
        {
          "indexed": false,
          "internalType": "uint256",
          "name": "releaseOnBlock",
          "type": "uint256"
        }
      ],
      "name": "LockTokens",
      "type": "event"
    },
    {
      "anonymous": false,
      "inputs": [
        {
          "indexed": true,
          "internalType": "address",
          "name": "previousOwner",
          "type": "address"
        },
        {
          "indexed": true,
          "internalType": "address",
          "name": "newOwner",
          "type": "address"
        }
      ],
      "name": "OwnershipTransferred",
      "type": "event"
    },
    {
      "anonymous": false,
      "inputs": [
        {
          "indexed": true,
          "internalType": "address",
          "name": "receiver",
          "type": "address"
        },
        {
          "indexed": true,
          "internalType": "uint256",
          "name": "id",
          "type": "uint256"
        },
        {
          "indexed": false,
          "internalType": "uint256",
          "name": "amount",
          "type": "uint256"
        }
      ],
      "name": "UnlockTokens",
      "type": "event"
    },
    {
      "inputs": [],
      "name": "collect",
      "outputs": [],
      "stateMutability": "nonpayable",
      "type": "function"
    },
    {
      "inputs": [
        {
          "internalType": "address",
          "name": "fundsAddress",
          "type": "address"
        }
      ],
      "name": "collectFunds",
      "outputs": [],
      "stateMutability": "nonpayable",
      "type": "function"
    },
    {
      "inputs": [
        {
          "internalType": "uint8",
          "name": "",
          "type": "uint8"
        }
      ],
      "name": "discountsLock",
      "outputs": [
        {
          "internalType": "uint256",
          "name": "",
          "type": "uint256"
        }
      ],
      "stateMutability": "view",
      "type": "function"
    },
    {
      "inputs": [],
      "name": "getPrice",
      "outputs": [
        {
          "internalType": "int256",
          "name": "price",
          "type": "int256"
        }
      ],
      "stateMutability": "view",
      "type": "function"
    },
    {
      "inputs": [
        {
          "internalType": "address",
          "name": "fundAddress",
          "type": "address"
        }
      ],
      "name": "getPriceToken",
      "outputs": [
        {
          "internalType": "int256",
          "name": "price",
          "type": "int256"
        }
      ],
      "stateMutability": "view",
      "type": "function"
    },
    {
      "inputs": [],
      "name": "minInvestment",
      "outputs": [
        {
          "internalType": "uint256",
          "name": "",
          "type": "uint256"
        }
      ],
      "stateMutability": "view",
      "type": "function"
    },
    {
      "inputs": [],
      "name": "notAfterBlock",
      "outputs": [
        {
          "internalType": "uint256",
          "name": "",
          "type": "uint256"
        }
      ],
      "stateMutability": "view",
      "type": "function"
    },
    {
      "inputs": [],
      "name": "notBeforeBlock",
      "outputs": [
        {
          "internalType": "uint256",
          "name": "",
          "type": "uint256"
        }
      ],
      "stateMutability": "view",
      "type": "function"
    },
    {
      "inputs": [
        {
          "internalType": "uint8",
          "name": "discountsRate",
          "type": "uint8"
        }
      ],
      "name": "order",
      "outputs": [],
      "stateMutability": "payable",
      "type": "function"
    },
    {
      "inputs": [
        {
          "internalType": "address",
          "name": "fundsAddress",
          "type": "address"
        },
        {
          "internalType": "uint256",
          "name": "fundsAmount",
          "type": "uint256"
        },
        {
          "internalType": "uint8",
          "name": "discountsRate",
          "type": "uint8"
        }
      ],
      "name": "orderToken",
      "outputs": [],
      "stateMutability": "nonpayable",
      "type": "function"
    },
    {
      "inputs": [
        {
          "internalType": "uint256",
          "name": "",
          "type": "uint256"
        }
      ],
      "name": "orders",
      "outputs": [
        {
          "internalType": "address",
          "name": "beneficiary",
          "type": "address"
        },
        {
          "internalType": "uint256",
          "name": "amount",
          "type": "uint256"
        },
        {
          "internalType": "uint256",
          "name": "releaseOnBlock",
          "type": "uint256"
        },
        {
          "internalType": "bool",
          "name": "claimed",
          "type": "bool"
        }
      ],
      "stateMutability": "view",
      "type": "function"
    },
    {
      "inputs": [],
      "name": "owner",
      "outputs": [
        {
          "internalType": "address",
          "name": "",
          "type": "address"
        }
      ],
      "stateMutability": "view",
      "type": "function"
    },
    {
      "inputs": [
        {
          "internalType": "uint256",
          "name": "orderId",
          "type": "uint256"
        }
      ],
      "name": "redeem",
      "outputs": [],
      "stateMutability": "nonpayable",
      "type": "function"
    },
    {
      "inputs": [],
      "name": "remainingTokens",
      "outputs": [
        {
          "internalType": "uint256",
          "name": "remainingToken",
          "type": "uint256"
        }
      ],
      "stateMutability": "view",
      "type": "function"
    },
    {
      "inputs": [],
      "name": "renounceOwnership",
      "outputs": [],
      "stateMutability": "nonpayable",
      "type": "function"
    },
    {
      "inputs": [
        {
          "internalType": "address",
          "name": "_to",
          "type": "address"
        },
        {
          "internalType": "uint256",
          "name": "_amount",
          "type": "uint256"
        }
      ],
      "name": "rewardRemainingTokens",
      "outputs": [],
      "stateMutability": "nonpayable",
      "type": "function"
    },
    {
      "inputs": [
        {
          "internalType": "uint256",
          "name": "_minInvestment",
          "type": "uint256"
        }
      ],
      "name": "setMinInvestment",
      "outputs": [],
      "stateMutability": "nonpayable",
      "type": "function"
    },
    {
      "inputs": [
        {
          "internalType": "address",
          "name": "_token",
          "type": "address"
        },
        {
          "internalType": "address",
          "name": "_priceFeed",
          "type": "address"
        }
      ],
      "name": "setSupportedToken",
      "outputs": [],
      "stateMutability": "nonpayable",
      "type": "function"
    },
    {
      "inputs": [
        {
          "internalType": "address",
          "name": "",
          "type": "address"
        }
      ],
      "name": "supportedTokens",
      "outputs": [
        {
          "internalType": "address",
          "name": "priceFeed",
          "type": "address"
        },
        {
          "internalType": "int256",
          "name": "rate",
          "type": "int256"
        },
        {
          "internalType": "uint8",
          "name": "decimals",
          "type": "uint8"
        },
        {
          "internalType": "uint256",
          "name": "raisedAmount",
          "type": "uint256"
        }
      ],
      "stateMutability": "view",
      "type": "function"
    },
    {
      "inputs": [],
      "name": "token",
      "outputs": [
        {
          "internalType": "contract IERC20Metadata",
          "name": "",
          "type": "address"
        }
      ],
      "stateMutability": "view",
      "type": "function"
    },
    {
      "inputs": [],
      "name": "totalDistributed",
      "outputs": [
        {
          "internalType": "uint256",
          "name": "",
          "type": "uint256"
        }
      ],
      "stateMutability": "view",
      "type": "function"
    },
    {
      "inputs": [
        {
          "internalType": "address",
          "name": "newOwner",
          "type": "address"
        }
      ],
      "name": "transferOwnership",
      "outputs": [],
      "stateMutability": "nonpayable",
      "type": "function"
    }
  ],
  "bytecode": "0x61010060405260006004553480156200001757600080fd5b506040516200251e3803806200251e833981810160405260808110156200003d57600080fd5b5080516020820151604083015160609093015191929091600062000060620001ed565b600080546001600160a01b0319166001600160a01b0383169081178255604051929350917f8be0079c531659141344cd1fd0a4f28419497f9722a3daafe3b4186f6b6457e0908290a3506001600160a01b03841615801590620000cb57506001600160a01b03831615155b62000103576040805162461bcd60e51b815260206004820152600360248201526249434160e81b604482015290519081900360640190fd5b4382101580156200011357508181115b6200014b576040805162461bcd60e51b815260206004820152600360248201526249505360e81b604482015290519081900360640190fd5b6001600160601b0319606094851b81166080529290931b90911660a05260c05260e05260016020526101a47f2a32391a76c35a36352b711f9152c0d0a340cd686850c8ef25fbb11c71b89e7b556103487f467a5c61216cad3003bc3395c339807c735d5c3d989ca4bc0ef2a37e14ce267955601e6000526104ec7f68fb8e7cad479ccc9244a179d64897454189fd25db04e15d3a5135327a17597b55620001f1565b3390565b60805160601c60a05160601c60c05160e0516122836200029b6000398061058152806107b752806109135280610b8c5280610ce45280610e585280610fff52806110855280611180528061136452806116815250806104ef52806105275280610b325280610c8a5280610dfe528061130a525080610bf95280610d3e5250806113df528061184952806118745280611922528061195e5280611af05280611bd652506122836000f3fe6080604052600436106101355760003560e01c8063a85c38ef116100ab578063bf5839031161006f578063bf5839031461043c578063db006a7514610451578063e52253811461047b578063efca2eed14610490578063f2fde38b146104a5578063fc0c546a146104d857610135565b8063a85c38ef1461032c578063aaded5a914610388578063b3f79497146103ca578063ba7ed2ff146103df578063be5a34b21461040957610135565b80638ac2c680116100fd5780638ac2c6801461023d5780638da5cb5b146102525780638dd5b06314610283578063900716a3146102bc57806396c79039146102f757806398d5fdca1461031757610135565b8063052931371461013a5780633af395f6146101615780635756eb4f1461018e57806368c4ac26146101c1578063715018a614610226575b600080fd5b34801561014657600080fd5b5061014f6104ed565b60408051918252519081900360200190f35b34801561016d57600080fd5b5061014f6004803603602081101561018457600080fd5b503560ff16610511565b34801561019a57600080fd5b5061014f600480360360208110156101b157600080fd5b50356001600160a01b0316610523565b3480156101cd57600080fd5b506101f4600480360360208110156101e457600080fd5b50356001600160a01b031661065c565b604080516001600160a01b039095168552602085019390935260ff909116838301526060830152519081900360800190f35b34801561023257600080fd5b5061023b610692565b005b34801561024957600080fd5b5061014f61073e565b34801561025e57600080fd5b50610267610744565b604080516001600160a01b039092168252519081900360200190f35b34801561028f57600080fd5b5061023b600480360360408110156102a657600080fd5b506001600160a01b038135169060200135610753565b3480156102c857600080fd5b5061023b600480360360408110156102df57600080fd5b506001600160a01b03813581169160200135166108af565b61023b6004803603602081101561030d57600080fd5b503560ff16610b30565b34801561032357600080fd5b5061014f610c86565b34801561033857600080fd5b506103566004803603602081101561034f57600080fd5b5035610dc6565b604080516001600160a01b03909516855260208501939093528383019190915215156060830152519081900360800190f35b34801561039457600080fd5b5061023b600480360360608110156103ab57600080fd5b5080356001600160a01b0316906020810135906040013560ff16610dfc565b3480156103d657600080fd5b5061014f610ffd565b3480156103eb57600080fd5b5061023b6004803603602081101561040257600080fd5b5035611021565b34801561041557600080fd5b5061023b6004803603602081101561042c57600080fd5b50356001600160a01b031661111c565b34801561044857600080fd5b5061014f611306565b34801561045d57600080fd5b5061023b6004803603602081101561047457600080fd5b5035611457565b34801561048757600080fd5b5061023b61161d565b34801561049c57600080fd5b5061014f61173f565b3480156104b157600080fd5b5061023b600480360360208110156104c857600080fd5b50356001600160a01b0316611745565b3480156104e457600080fd5b50610267611847565b7f000000000000000000000000000000000000000000000000000000000000000081565b60016020526000908152604090205481565b60007f0000000000000000000000000000000000000000000000000000000000000000431161057f576040805162461bcd60e51b8152602060048201526003602482015262504e5360e81b604482015290519081900360640190fd5b7f000000000000000000000000000000000000000000000000000000000000000043106105d9576040805162461bcd60e51b81526020600482015260036024820152622822a760e91b604482015290519081900360640190fd5b6001600160a01b038083166000908152600260209081526040918290205482516350d25bcd60e01b815292519316926350d25bcd926004808201939291829003018186803b15801561062a57600080fd5b505afa15801561063e573d6000803e3d6000fd5b505050506040513d602081101561065457600080fd5b505192915050565b600260208190526000918252604090912080546001820154928201546003909201546001600160a01b03909116929160ff169084565b61069a61186b565b6001600160a01b03166106ab610744565b6001600160a01b0316146106f4576040805162461bcd60e51b81526020600482018190526024820152600080516020612204833981519152604482015290519081900360640190fd5b600080546040516001600160a01b03909116907f8be0079c531659141344cd1fd0a4f28419497f9722a3daafe3b4186f6b6457e0908390a3600080546001600160a01b0319169055565b60065481565b6000546001600160a01b031690565b61075b61186b565b6001600160a01b031661076c610744565b6001600160a01b0316146107b5576040805162461bcd60e51b81526020600482018190526024820152600080516020612204833981519152604482015290519081900360640190fd5b7f0000000000000000000000000000000000000000000000000000000000000000431161080f576040805162461bcd60e51b8152602060048201526003602482015262504e4560e81b604482015290519081900360640190fd5b6001600160a01b038216610850576040805162461bcd60e51b815260206004820152600360248201526249414160e81b604482015290519081900360640190fd5b6000811161088b576040805162461bcd60e51b815260206004820152600360248201526224a0ab60e91b604482015290519081900360640190fd5b6000610897838361186f565b6005549091506108a79082611990565b600555505050565b6108b761186b565b6001600160a01b03166108c8610744565b6001600160a01b031614610911576040805162461bcd60e51b81526020600482018190526024820152600080516020612204833981519152604482015290519081900360640190fd5b7f0000000000000000000000000000000000000000000000000000000000000000431061096b576040805162461bcd60e51b81526020600482015260036024820152622822a760e91b604482015290519081900360640190fd5b6001600160a01b0382166109ac576040805162461bcd60e51b815260206004820152600360248201526249544160e81b604482015290519081900360640190fd5b6001600160a01b0381166109f0576040805162461bcd60e51b81526020600480830191909152602482015263494f504160e01b604482015290519081900360640190fd5b6001600160a01b0382811660009081526002602090815260409182902080546001600160a01b0319169385169384179055815163313ce56760e01b8152915163313ce567926004808201939291829003018186803b158015610a5157600080fd5b505afa158015610a65573d6000803e3d6000fd5b505050506040513d6020811015610a7b57600080fd5b50516001600160a01b03838116600090815260026020818152604092839020909101805460ff191660ff9095169490941790935580516350d25bcd60e01b81529051918416926350d25bcd92600480840193829003018186803b158015610ae157600080fd5b505afa158015610af5573d6000803e3d6000fd5b505050506040513d6020811015610b0b57600080fd5b50516001600160a01b0390921660009081526002602052604090206001019190915550565b7f00000000000000000000000000000000000000000000000000000000000000004311610b8a576040805162461bcd60e51b8152602060048201526003602482015262504e5360e81b604482015290519081900360640190fd5b7f00000000000000000000000000000000000000000000000000000000000000004310610be4576040805162461bcd60e51b81526020600482015260036024820152622822a760e91b604482015290519081900360640190fd5b6000610bee610c86565b9050610c82346012837f00000000000000000000000000000000000000000000000000000000000000006001600160a01b031663313ce5676040518163ffffffff1660e01b815260040160206040518083038186803b158015610c5057600080fd5b505afa158015610c64573d6000803e3d6000fd5b505050506040513d6020811015610c7a57600080fd5b5051866119f3565b5050565b60007f00000000000000000000000000000000000000000000000000000000000000004311610ce2576040805162461bcd60e51b8152602060048201526003602482015262504e5360e81b604482015290519081900360640190fd5b7f00000000000000000000000000000000000000000000000000000000000000004310610d3c576040805162461bcd60e51b81526020600482015260036024820152622822a760e91b604482015290519081900360640190fd5b7f00000000000000000000000000000000000000000000000000000000000000006001600160a01b03166350d25bcd6040518163ffffffff1660e01b815260040160206040518083038186803b158015610d9557600080fd5b505afa158015610da9573d6000803e3d6000fd5b505050506040513d6020811015610dbf57600080fd5b5051919050565b600360208190526000918252604090912080546001820154600283015492909301546001600160a01b0390911692919060ff1684565b7f00000000000000000000000000000000000000000000000000000000000000004311610e56576040805162461bcd60e51b8152602060048201526003602482015262504e5360e81b604482015290519081900360640190fd5b7f00000000000000000000000000000000000000000000000000000000000000004310610eb0576040805162461bcd60e51b81526020600482015260036024820152622822a760e91b604482015290519081900360640190fd5b6001600160a01b038316600090815260026020526040902082610eff576040805162461bcd60e51b815260206004820152600260248201526124ab60f11b604482015290519081900360640190fd5b80546001600160a01b0316610f41576040805162461bcd60e51b8152602060048201526003602482015262464e5360e81b604482015290519081900360640190fd5b610f4a84610523565b6001820155610f646001600160a01b038516333086611d56565b6003810154610f739084611990565b8160030181905550610ff783856001600160a01b031663313ce5676040518163ffffffff1660e01b815260040160206040518083038186803b158015610fb857600080fd5b505afa158015610fcc573d6000803e3d6000fd5b505050506040513d6020811015610fe257600080fd5b50516001840154600285015460ff16866119f3565b50505050565b7f000000000000000000000000000000000000000000000000000000000000000081565b61102961186b565b6001600160a01b031661103a610744565b6001600160a01b031614611083576040805162461bcd60e51b81526020600482018190526024820152600080516020612204833981519152604482015290519081900360640190fd5b7f000000000000000000000000000000000000000000000000000000000000000043106110dd576040805162461bcd60e51b81526020600482015260036024820152622822a760e91b604482015290519081900360640190fd5b60008111611117576040805162461bcd60e51b815260206004820152600260248201526124ab60f11b604482015290519081900360640190fd5b600655565b61112461186b565b6001600160a01b0316611135610744565b6001600160a01b03161461117e576040805162461bcd60e51b81526020600482018190526024820152600080516020612204833981519152604482015290519081900360640190fd5b7f000000000000000000000000000000000000000000000000000000000000000043116111d8576040805162461bcd60e51b8152602060048201526003602482015262504e4560e81b604482015290519081900360640190fd5b6000816001600160a01b03166370a08231306040518263ffffffff1660e01b815260040180826001600160a01b0316815260200191505060206040518083038186803b15801561122757600080fd5b505afa15801561123b573d6000803e3d6000fd5b505050506040513d602081101561125157600080fd5b505190508061128d576040805162461bcd60e51b81526020600482015260036024820152624e454360e81b604482015290519081900360640190fd5b6040805163a9059cbb60e01b81523360048201526024810183905290516001600160a01b0384169163a9059cbb9160448083019260209291908290030181600087803b1580156112dc57600080fd5b505af11580156112f0573d6000803e3d6000fd5b505050506040513d6020811015610ff757600080fd5b60007f00000000000000000000000000000000000000000000000000000000000000004311611362576040805162461bcd60e51b8152602060048201526003602482015262504e5360e81b604482015290519081900360640190fd5b7f000000000000000000000000000000000000000000000000000000000000000043106113bc576040805162461bcd60e51b81526020600482015260036024820152622822a760e91b604482015290519081900360640190fd5b600554604080516370a0823160e01b815230600482015290516001600160a01b037f000000000000000000000000000000000000000000000000000000000000000016916370a08231916024808301926020929190829003018186803b15801561142557600080fd5b505afa158015611439573d6000803e3d6000fd5b505050506040513d602081101561144f57600080fd5b505103919050565b600454811115611494576040805162461bcd60e51b8152602060048201526003602482015262494f4960e81b604482015290519081900360640190fd5b600081815260036020526040902080546001600160a01b031633146114e6576040805162461bcd60e51b81526020600482015260036024820152624e4f4f60e81b604482015290519081900360640190fd5b6000816001015411611525576040805162461bcd60e51b815260206004820152600360248201526249544160e81b604482015290519081900360640190fd5b8060020154431015611564576040805162461bcd60e51b815260206004820152600360248201526215125360ea1b604482015290519081900360640190fd5b600381015460ff16156115a4576040805162461bcd60e51b815260206004820152600360248201526254414360e81b604482015290519081900360640190fd5b805460018201546000916115c3916001600160a01b039091169061186f565b60038301805460ff19166001179055825460408051838152905192935085926001600160a01b03909216917fa9b22fc99b437cca7226a19e7018090ba9124753983abed4abc977f88a37eb569181900360200190a3505050565b61162561186b565b6001600160a01b0316611636610744565b6001600160a01b03161461167f576040805162461bcd60e51b81526020600482018190526024820152600080516020612204833981519152604482015290519081900360640190fd5b7f000000000000000000000000000000000000000000000000000000000000000043116116d9576040805162461bcd60e51b8152602060048201526003602482015262504e4560e81b604482015290519081900360640190fd5b4780611712576040805162461bcd60e51b81526020600482015260036024820152624e454360e81b604482015290519081900360640190fd5b604051339082156108fc029083906000818181858888f19350505050158015610c82573d6000803e3d6000fd5b60055481565b61174d61186b565b6001600160a01b031661175e610744565b6001600160a01b0316146117a7576040805162461bcd60e51b81526020600482018190526024820152600080516020612204833981519152604482015290519081900360640190fd5b6001600160a01b0381166117ec5760405162461bcd60e51b81526004018080602001828103825260268152602001806121976026913960400191505060405180910390fd5b600080546040516001600160a01b03808516939216917f8be0079c531659141344cd1fd0a4f28419497f9722a3daafe3b4186f6b6457e091a3600080546001600160a01b0319166001600160a01b0392909216919091179055565b7f000000000000000000000000000000000000000000000000000000000000000081565b3390565b6000807f00000000000000000000000000000000000000000000000000000000000000006001600160a01b03166370a08231306040518263ffffffff1660e01b815260040180826001600160a01b0316815260200191505060206040518083038186803b1580156118df57600080fd5b505afa1580156118f3573d6000803e3d6000fd5b505050506040513d602081101561190957600080fd5b5051905082811015611951576119496001600160a01b037f0000000000000000000000000000000000000000000000000000000000000000168583611db0565b809150611989565b6119856001600160a01b037f0000000000000000000000000000000000000000000000000000000000000000168585611db0565b8291505b5092915050565b6000828201838110156119ea576040805162461bcd60e51b815260206004820152601b60248201527f536166654d6174683a206164646974696f6e206f766572666c6f770000000000604482015290519081900360640190fd5b90505b92915050565b600654611a1260ff86850116600a0a611a0c8887611e07565b90611e60565b1015611a4b576040805162461bcd60e51b81526020600482015260036024820152624c4d4960e81b604482015290519081900360640190fd5b60048054600190810190915560ff8216600090815260209190915260409020546101a4811015611aa8576040805162461bcd60e51b815260206004820152600360248201526227222960e91b604482015290519081900360640190fd5b6000611abf611ab8836003611e60565b4390611990565b90506000606461ffff61012c60ff8784031602160461ffff1690506000611aea82611a0c8b8a611e07565b905060007f00000000000000000000000000000000000000000000000000000000000000006001600160a01b031663313ce5676040518163ffffffff1660e01b815260040160206040518083038186803b158015611b4757600080fd5b505afa158015611b5b573d6000803e3d6000fd5b505050506040513d6020811015611b7157600080fd5b5051600401905088870160ff80821690831610611ba157611b9a8360ff83850316600a0a611e07565b9250611bb6565b611bb38360ff84840316600a0a611e60565b92505b604080516370a0823160e01b815230600482015290516001600160a01b037f000000000000000000000000000000000000000000000000000000000000000016916370a08231916024808301926020929190829003018186803b158015611c1c57600080fd5b505afa158015611c30573d6000803e3d6000fd5b505050506040513d6020811015611c4657600080fd5b505160055484011115611c86576040805162461bcd60e51b815260206004820152600360248201526213915560ea1b604482015290519081900360640190fd5b6040805160808101825233815260208082018681528284018981526000606085018181526004548252600394859052959020935184546001600160a01b0319166001600160a01b039091161784559051600184015551600283015591519101805460ff1916911515919091179055600554611d019084611990565b60055560045460408051858152436020820152808201889052905133917f1c0faff31a4ddddbe14119049530c0e55d7f79bedfd0e3a74b16098ac66e42e8919081900360600190a35050505050505050505050565b604080516001600160a01b0380861660248301528416604482015260648082018490528251808303909101815260849091019091526020810180516001600160e01b03166323b872dd60e01b179052610ff7908590611ec7565b604080516001600160a01b038416602482015260448082018490528251808303909101815260649091019091526020810180516001600160e01b031663a9059cbb60e01b179052611e02908490611ec7565b505050565b600082611e16575060006119ed565b82820282848281611e2357fe5b04146119ea5760405162461bcd60e51b81526004018080602001828103825260218152602001806121e36021913960400191505060405180910390fd5b6000808211611eb6576040805162461bcd60e51b815260206004820152601a60248201527f536166654d6174683a206469766973696f6e206279207a65726f000000000000604482015290519081900360640190fd5b818381611ebf57fe5b049392505050565b6000611f1c826040518060400160405280602081526020017f5361666545524332303a206c6f772d6c6576656c2063616c6c206661696c6564815250856001600160a01b0316611f789092919063ffffffff16565b805190915015611e0257808060200190516020811015611f3b57600080fd5b5051611e025760405162461bcd60e51b815260040180806020018281038252602a815260200180612224602a913960400191505060405180910390fd5b6060611f878484600085611f91565b90505b9392505050565b606082471015611fd25760405162461bcd60e51b81526004018080602001828103825260268152602001806121bd6026913960400191505060405180910390fd5b611fdb856120ec565b61202c576040805162461bcd60e51b815260206004820152601d60248201527f416464726573733a2063616c6c20746f206e6f6e2d636f6e7472616374000000604482015290519081900360640190fd5b600080866001600160a01b031685876040518082805190602001908083835b6020831061206a5780518252601f19909201916020918201910161204b565b6001836020036101000a03801982511681845116808217855250505050505090500191505060006040518083038185875af1925050503d80600081146120cc576040519150601f19603f3d011682016040523d82523d6000602084013e6120d1565b606091505b50915091506120e18282866120f2565b979650505050505050565b3b151590565b60608315612101575081611f8a565b8251156121115782518084602001fd5b8160405162461bcd60e51b81526004018080602001828103825283818151815260200191508051906020019080838360005b8381101561215b578181015183820152602001612143565b50505050905090810190601f1680156121885780820380516001836020036101000a031916815260200191505b509250505060405180910390fdfe4f776e61626c653a206e6577206f776e657220697320746865207a65726f2061646472657373416464726573733a20696e73756666696369656e742062616c616e636520666f722063616c6c536166654d6174683a206d756c7469706c69636174696f6e206f766572666c6f774f776e61626c653a2063616c6c6572206973206e6f7420746865206f776e65725361666545524332303a204552433230206f7065726174696f6e20646964206e6f742073756363656564a2646970667358221220efcc110581e052afeb4bf8069b5dda4b3a5c863e87df20f10ed1be90e0ca7d4d64736f6c63430007060033",
  "linkReferences": {},
  "deployedLinkReferences": {}
}