{
  "_format": "hh-sol-artifact-1",
  "contractName": "Presale",
  "sourceName": "contracts/Presale.sol",
  "abi": [
    {
      "inputs": [
        {
          "internalType": "address",
          "name": "_token",
          "type": "address"
        },
        {
          "internalType": "address",
          "name": "_priceFeed",
          "type": "address"
        },
        {
          "internalType": "uint256",
          "name": "_notBeforeBlock",
          "type": "uint256"
        },
        {
          "internalType": "uint256",
          "name": "_notAfterBlock",
          "type": "uint256"
        }
      ],
      "stateMutability": "nonpayable",
      "type": "constructor"
    },
    {
      "anonymous": false,
      "inputs": [
        {
          "indexed": true,
          "internalType": "address",
          "name": "sender",
          "type": "address"
        },
        {
          "indexed": false,
          "internalType": "uint256",
          "name": "id",
          "type": "uint256"
        },
        {
          "indexed": false,
          "internalType": "uint256",
          "name": "amount",
          "type": "uint256"
        },
        {
          "indexed": false,
          "internalType": "uint256",
          "name": "lockOnBlock",
          "type": "uint256"
        },
        {
          "indexed": false,
          "internalType": "uint256",
          "name": "releaseOnBlock",
          "type": "uint256"
        }
      ],
      "name": "LockFunds",
      "type": "event"
    },
    {
      "anonymous": false,
      "inputs": [
        {
          "indexed": true,
          "internalType": "address",
          "name": "previousOwner",
          "type": "address"
        },
        {
          "indexed": true,
          "internalType": "address",
          "name": "newOwner",
          "type": "address"
        }
      ],
      "name": "OwnershipTransferred",
      "type": "event"
    },
    {
      "anonymous": false,
      "inputs": [
        {
          "indexed": true,
          "internalType": "address",
          "name": "receiver",
          "type": "address"
        },
        {
          "indexed": false,
          "internalType": "uint256",
          "name": "id",
          "type": "uint256"
        },
        {
          "indexed": false,
          "internalType": "uint256",
          "name": "amount",
          "type": "uint256"
        }
      ],
      "name": "UnlockFunds",
      "type": "event"
    },
    {
      "inputs": [],
      "name": "collect",
      "outputs": [],
      "stateMutability": "nonpayable",
      "type": "function"
    },
    {
      "inputs": [
        {
          "internalType": "address",
          "name": "fundsAddress",
          "type": "address"
        }
      ],
      "name": "collectFunds",
      "outputs": [],
      "stateMutability": "nonpayable",
      "type": "function"
    },
    {
      "inputs": [
        {
          "internalType": "uint8",
          "name": "",
          "type": "uint8"
        }
      ],
      "name": "discountsLock",
      "outputs": [
        {
          "internalType": "uint256",
          "name": "",
          "type": "uint256"
        }
      ],
      "stateMutability": "view",
      "type": "function"
    },
    {
      "inputs": [],
      "name": "getPrice",
      "outputs": [
        {
          "internalType": "int256",
          "name": "price",
          "type": "int256"
        }
      ],
      "stateMutability": "view",
      "type": "function"
    },
    {
      "inputs": [
        {
          "internalType": "address",
          "name": "fundAddress",
          "type": "address"
        }
      ],
      "name": "getPriceToken",
      "outputs": [
        {
          "internalType": "int256",
          "name": "price",
          "type": "int256"
        }
      ],
      "stateMutability": "view",
      "type": "function"
    },
    {
      "inputs": [],
      "name": "minInvestment",
      "outputs": [
        {
          "internalType": "uint256",
          "name": "",
          "type": "uint256"
        }
      ],
      "stateMutability": "view",
      "type": "function"
    },
    {
      "inputs": [],
      "name": "notAfterBlock",
      "outputs": [
        {
          "internalType": "uint256",
          "name": "",
          "type": "uint256"
        }
      ],
      "stateMutability": "view",
      "type": "function"
    },
    {
      "inputs": [],
      "name": "notBeforeBlock",
      "outputs": [
        {
          "internalType": "uint256",
          "name": "",
          "type": "uint256"
        }
      ],
      "stateMutability": "view",
      "type": "function"
    },
    {
      "inputs": [
        {
          "internalType": "uint8",
          "name": "discountsRate",
          "type": "uint8"
        }
      ],
      "name": "order",
      "outputs": [],
      "stateMutability": "payable",
      "type": "function"
    },
    {
      "inputs": [
        {
          "internalType": "address",
          "name": "fundsAddress",
          "type": "address"
        },
        {
          "internalType": "uint256",
          "name": "fundsAmount",
          "type": "uint256"
        },
        {
          "internalType": "uint8",
          "name": "discountsRate",
          "type": "uint8"
        }
      ],
      "name": "orderToken",
      "outputs": [],
      "stateMutability": "nonpayable",
      "type": "function"
    },
    {
      "inputs": [
        {
          "internalType": "uint256",
          "name": "",
          "type": "uint256"
        }
      ],
      "name": "orders",
      "outputs": [
        {
          "internalType": "address",
          "name": "beneficiary",
          "type": "address"
        },
        {
          "internalType": "uint256",
          "name": "amount",
          "type": "uint256"
        },
        {
          "internalType": "uint256",
          "name": "releaseOnBlock",
          "type": "uint256"
        },
        {
          "internalType": "bool",
          "name": "claimed",
          "type": "bool"
        }
      ],
      "stateMutability": "view",
      "type": "function"
    },
    {
      "inputs": [],
      "name": "owner",
      "outputs": [
        {
          "internalType": "address",
          "name": "",
          "type": "address"
        }
      ],
      "stateMutability": "view",
      "type": "function"
    },
    {
      "inputs": [
        {
          "internalType": "uint256",
          "name": "orderId",
          "type": "uint256"
        }
      ],
      "name": "redeem",
      "outputs": [],
      "stateMutability": "nonpayable",
      "type": "function"
    },
    {
      "inputs": [],
      "name": "remainingTokens",
      "outputs": [
        {
          "internalType": "uint256",
          "name": "remainingToken",
          "type": "uint256"
        }
      ],
      "stateMutability": "view",
      "type": "function"
    },
    {
      "inputs": [],
      "name": "renounceOwnership",
      "outputs": [],
      "stateMutability": "nonpayable",
      "type": "function"
    },
    {
      "inputs": [
        {
          "internalType": "address",
          "name": "_to",
          "type": "address"
        },
        {
          "internalType": "uint256",
          "name": "_amount",
          "type": "uint256"
        }
      ],
      "name": "rewardRemainingTokens",
      "outputs": [],
      "stateMutability": "nonpayable",
      "type": "function"
    },
    {
      "inputs": [
        {
          "internalType": "uint256",
          "name": "_minInvestment",
          "type": "uint256"
        }
      ],
      "name": "setMinInvestment",
      "outputs": [],
      "stateMutability": "nonpayable",
      "type": "function"
    },
    {
      "inputs": [
        {
          "internalType": "address",
          "name": "_token",
          "type": "address"
        },
        {
          "internalType": "address",
          "name": "_priceFeed",
          "type": "address"
        }
      ],
      "name": "setSupportedToken",
      "outputs": [],
      "stateMutability": "nonpayable",
      "type": "function"
    },
    {
      "inputs": [
        {
          "internalType": "address",
          "name": "",
          "type": "address"
        }
      ],
      "name": "supportedTokens",
      "outputs": [
        {
          "internalType": "address",
          "name": "priceFeed",
          "type": "address"
        },
        {
          "internalType": "int256",
          "name": "rate",
          "type": "int256"
        },
        {
          "internalType": "uint8",
          "name": "decimals",
          "type": "uint8"
        },
        {
          "internalType": "uint256",
          "name": "raisedAmount",
          "type": "uint256"
        }
      ],
      "stateMutability": "view",
      "type": "function"
    },
    {
      "inputs": [],
      "name": "token",
      "outputs": [
        {
          "internalType": "contract IERC20Metadata",
          "name": "",
          "type": "address"
        }
      ],
      "stateMutability": "view",
      "type": "function"
    },
    {
      "inputs": [],
      "name": "totalDistributed",
      "outputs": [
        {
          "internalType": "uint256",
          "name": "",
          "type": "uint256"
        }
      ],
      "stateMutability": "view",
      "type": "function"
    },
    {
      "inputs": [
        {
          "internalType": "address",
          "name": "newOwner",
          "type": "address"
        }
      ],
      "name": "transferOwnership",
      "outputs": [],
      "stateMutability": "nonpayable",
      "type": "function"
    }
  ],
  "bytecode": "0x61010060405260006004553480156200001757600080fd5b50604051620026a7380380620026a7833981810160405260808110156200003d57600080fd5b5080516020820151604083015160609093015191929091600062000060620001ed565b600080546001600160a01b0319166001600160a01b0383169081178255604051929350917f8be0079c531659141344cd1fd0a4f28419497f9722a3daafe3b4186f6b6457e0908290a3506001600160a01b03841615801590620000cb57506001600160a01b03831615155b62000103576040805162461bcd60e51b815260206004820152600360248201526249434160e81b604482015290519081900360640190fd5b4382101580156200011357508181115b6200014b576040805162461bcd60e51b815260206004820152600360248201526249505360e81b604482015290519081900360640190fd5b6001600160601b0319606094851b81166080529290931b90911660a05260c05260e05260016020526101a47f2a32391a76c35a36352b711f9152c0d0a340cd686850c8ef25fbb11c71b89e7b556103487f467a5c61216cad3003bc3395c339807c735d5c3d989ca4bc0ef2a37e14ce267955601e6000526104ec7f68fb8e7cad479ccc9244a179d64897454189fd25db04e15d3a5135327a17597b55620001f1565b3390565b60805160601c60a05160601c60c05160e05161240c6200029b6000398061058152806107b752806109135280610b8c5280610ce45280610e58528061103852806110be52806111b952806113a352806116c55250806104ef52806105275280610b325280610c8a5280610dfe5280611349525080610bf95280610d3e52508061141e528061188d52806118b8528061196652806119a25280611b2e5280611c14525061240c6000f3fe6080604052600436106101355760003560e01c8063a85c38ef116100ab578063bf5839031161006f578063bf5839031461043c578063db006a7514610451578063e52253811461047b578063efca2eed14610490578063f2fde38b146104a5578063fc0c546a146104d857610135565b8063a85c38ef1461032c578063aaded5a914610388578063b3f79497146103ca578063ba7ed2ff146103df578063be5a34b21461040957610135565b80638ac2c680116100fd5780638ac2c6801461023d5780638da5cb5b146102525780638dd5b06314610283578063900716a3146102bc57806396c79039146102f757806398d5fdca1461031757610135565b8063052931371461013a5780633af395f6146101615780635756eb4f1461018e57806368c4ac26146101c1578063715018a614610226575b600080fd5b34801561014657600080fd5b5061014f6104ed565b60408051918252519081900360200190f35b34801561016d57600080fd5b5061014f6004803603602081101561018457600080fd5b503560ff16610511565b34801561019a57600080fd5b5061014f600480360360208110156101b157600080fd5b50356001600160a01b0316610523565b3480156101cd57600080fd5b506101f4600480360360208110156101e457600080fd5b50356001600160a01b031661065c565b604080516001600160a01b039095168552602085019390935260ff909116838301526060830152519081900360800190f35b34801561023257600080fd5b5061023b610692565b005b34801561024957600080fd5b5061014f61073e565b34801561025e57600080fd5b50610267610744565b604080516001600160a01b039092168252519081900360200190f35b34801561028f57600080fd5b5061023b600480360360408110156102a657600080fd5b506001600160a01b038135169060200135610753565b3480156102c857600080fd5b5061023b600480360360408110156102df57600080fd5b506001600160a01b03813581169160200135166108af565b61023b6004803603602081101561030d57600080fd5b503560ff16610b30565b34801561032357600080fd5b5061014f610c86565b34801561033857600080fd5b506103566004803603602081101561034f57600080fd5b5035610dc6565b604080516001600160a01b03909516855260208501939093528383019190915215156060830152519081900360800190f35b34801561039457600080fd5b5061023b600480360360608110156103ab57600080fd5b5080356001600160a01b0316906020810135906040013560ff16610dfc565b3480156103d657600080fd5b5061014f611036565b3480156103eb57600080fd5b5061023b6004803603602081101561040257600080fd5b503561105a565b34801561041557600080fd5b5061023b6004803603602081101561042c57600080fd5b50356001600160a01b0316611155565b34801561044857600080fd5b5061014f611345565b34801561045d57600080fd5b5061023b6004803603602081101561047457600080fd5b5035611496565b34801561048757600080fd5b5061023b611661565b34801561049c57600080fd5b5061014f611783565b3480156104b157600080fd5b5061023b600480360360208110156104c857600080fd5b50356001600160a01b0316611789565b3480156104e457600080fd5b5061026761188b565b7f000000000000000000000000000000000000000000000000000000000000000081565b60016020526000908152604090205481565b60007f0000000000000000000000000000000000000000000000000000000000000000431161057f576040805162461bcd60e51b8152602060048201526003602482015262504e5360e81b604482015290519081900360640190fd5b7f000000000000000000000000000000000000000000000000000000000000000043106105d9576040805162461bcd60e51b81526020600482015260036024820152622822a760e91b604482015290519081900360640190fd5b6001600160a01b038083166000908152600260209081526040918290205482516350d25bcd60e01b815292519316926350d25bcd926004808201939291829003018186803b15801561062a57600080fd5b505afa15801561063e573d6000803e3d6000fd5b505050506040513d602081101561065457600080fd5b505192915050565b600260208190526000918252604090912080546001820154928201546003909201546001600160a01b03909116929160ff169084565b61069a6118af565b6001600160a01b03166106ab610744565b6001600160a01b0316146106f4576040805162461bcd60e51b81526020600482018190526024820152600080516020612357833981519152604482015290519081900360640190fd5b600080546040516001600160a01b03909116907f8be0079c531659141344cd1fd0a4f28419497f9722a3daafe3b4186f6b6457e0908390a3600080546001600160a01b0319169055565b60065481565b6000546001600160a01b031690565b61075b6118af565b6001600160a01b031661076c610744565b6001600160a01b0316146107b5576040805162461bcd60e51b81526020600482018190526024820152600080516020612357833981519152604482015290519081900360640190fd5b7f0000000000000000000000000000000000000000000000000000000000000000431161080f576040805162461bcd60e51b8152602060048201526003602482015262504e4560e81b604482015290519081900360640190fd5b6001600160a01b038216610850576040805162461bcd60e51b815260206004820152600360248201526249414160e81b604482015290519081900360640190fd5b6000811161088b576040805162461bcd60e51b815260206004820152600360248201526224a0ab60e91b604482015290519081900360640190fd5b600061089783836118b3565b6005549091506108a790826119d4565b600555505050565b6108b76118af565b6001600160a01b03166108c8610744565b6001600160a01b031614610911576040805162461bcd60e51b81526020600482018190526024820152600080516020612357833981519152604482015290519081900360640190fd5b7f0000000000000000000000000000000000000000000000000000000000000000431061096b576040805162461bcd60e51b81526020600482015260036024820152622822a760e91b604482015290519081900360640190fd5b6001600160a01b0382166109ac576040805162461bcd60e51b815260206004820152600360248201526249544160e81b604482015290519081900360640190fd5b6001600160a01b0381166109f0576040805162461bcd60e51b81526020600480830191909152602482015263494f504160e01b604482015290519081900360640190fd5b6001600160a01b0382811660009081526002602090815260409182902080546001600160a01b0319169385169384179055815163313ce56760e01b8152915163313ce567926004808201939291829003018186803b158015610a5157600080fd5b505afa158015610a65573d6000803e3d6000fd5b505050506040513d6020811015610a7b57600080fd5b50516001600160a01b03838116600090815260026020818152604092839020909101805460ff191660ff9095169490941790935580516350d25bcd60e01b81529051918416926350d25bcd92600480840193829003018186803b158015610ae157600080fd5b505afa158015610af5573d6000803e3d6000fd5b505050506040513d6020811015610b0b57600080fd5b50516001600160a01b0390921660009081526002602052604090206001019190915550565b7f00000000000000000000000000000000000000000000000000000000000000004311610b8a576040805162461bcd60e51b8152602060048201526003602482015262504e5360e81b604482015290519081900360640190fd5b7f00000000000000000000000000000000000000000000000000000000000000004310610be4576040805162461bcd60e51b81526020600482015260036024820152622822a760e91b604482015290519081900360640190fd5b6000610bee610c86565b9050610c82346012837f00000000000000000000000000000000000000000000000000000000000000006001600160a01b031663313ce5676040518163ffffffff1660e01b815260040160206040518083038186803b158015610c5057600080fd5b505afa158015610c64573d6000803e3d6000fd5b505050506040513d6020811015610c7a57600080fd5b505186611a37565b5050565b60007f00000000000000000000000000000000000000000000000000000000000000004311610ce2576040805162461bcd60e51b8152602060048201526003602482015262504e5360e81b604482015290519081900360640190fd5b7f00000000000000000000000000000000000000000000000000000000000000004310610d3c576040805162461bcd60e51b81526020600482015260036024820152622822a760e91b604482015290519081900360640190fd5b7f00000000000000000000000000000000000000000000000000000000000000006001600160a01b03166350d25bcd6040518163ffffffff1660e01b815260040160206040518083038186803b158015610d9557600080fd5b505afa158015610da9573d6000803e3d6000fd5b505050506040513d6020811015610dbf57600080fd5b5051919050565b600360208190526000918252604090912080546001820154600283015492909301546001600160a01b0390911692919060ff1684565b7f00000000000000000000000000000000000000000000000000000000000000004311610e56576040805162461bcd60e51b8152602060048201526003602482015262504e5360e81b604482015290519081900360640190fd5b7f00000000000000000000000000000000000000000000000000000000000000004310610eb0576040805162461bcd60e51b81526020600482015260036024820152622822a760e91b604482015290519081900360640190fd5b6001600160a01b038316600090815260026020526040902082610eff576040805162461bcd60e51b815260206004820152600260248201526124ab60f11b604482015290519081900360640190fd5b80546001600160a01b0316610f41576040805162461bcd60e51b8152602060048201526003602482015262464e5360e81b604482015290519081900360640190fd5b610f4a84610523565b60018201556000610f71610f6a6064610f6487600a611d9a565b90611df3565b85906119d4565b9050610f876001600160a01b0386163083611e5a565b610f9c6001600160a01b038616333087611f72565b6003820154610fab90856119d4565b826003018190555061102f84866001600160a01b031663313ce5676040518163ffffffff1660e01b815260040160206040518083038186803b158015610ff057600080fd5b505afa158015611004573d6000803e3d6000fd5b505050506040513d602081101561101a57600080fd5b50516001850154600286015460ff1687611a37565b5050505050565b7f000000000000000000000000000000000000000000000000000000000000000081565b6110626118af565b6001600160a01b0316611073610744565b6001600160a01b0316146110bc576040805162461bcd60e51b81526020600482018190526024820152600080516020612357833981519152604482015290519081900360640190fd5b7f00000000000000000000000000000000000000000000000000000000000000004310611116576040805162461bcd60e51b81526020600482015260036024820152622822a760e91b604482015290519081900360640190fd5b60008111611150576040805162461bcd60e51b815260206004820152600260248201526124ab60f11b604482015290519081900360640190fd5b600655565b61115d6118af565b6001600160a01b031661116e610744565b6001600160a01b0316146111b7576040805162461bcd60e51b81526020600482018190526024820152600080516020612357833981519152604482015290519081900360640190fd5b7f00000000000000000000000000000000000000000000000000000000000000004311611211576040805162461bcd60e51b8152602060048201526003602482015262504e4560e81b604482015290519081900360640190fd5b6000816001600160a01b03166370a08231306040518263ffffffff1660e01b815260040180826001600160a01b0316815260200191505060206040518083038186803b15801561126057600080fd5b505afa158015611274573d6000803e3d6000fd5b505050506040513d602081101561128a57600080fd5b50519050806112c6576040805162461bcd60e51b81526020600482015260036024820152624e454360e81b604482015290519081900360640190fd5b6040805163a9059cbb60e01b81523360048201526024810183905290516001600160a01b0384169163a9059cbb9160448083019260209291908290030181600087803b15801561131557600080fd5b505af1158015611329573d6000803e3d6000fd5b505050506040513d602081101561133f57600080fd5b50505050565b60007f000000000000000000000000000000000000000000000000000000000000000043116113a1576040805162461bcd60e51b8152602060048201526003602482015262504e5360e81b604482015290519081900360640190fd5b7f000000000000000000000000000000000000000000000000000000000000000043106113fb576040805162461bcd60e51b81526020600482015260036024820152622822a760e91b604482015290519081900360640190fd5b600554604080516370a0823160e01b815230600482015290516001600160a01b037f000000000000000000000000000000000000000000000000000000000000000016916370a08231916024808301926020929190829003018186803b15801561146457600080fd5b505afa158015611478573d6000803e3d6000fd5b505050506040513d602081101561148e57600080fd5b505103919050565b6004548111156114d3576040805162461bcd60e51b8152602060048201526003602482015262494f4960e81b604482015290519081900360640190fd5b600081815260036020526040902080546001600160a01b03163314611525576040805162461bcd60e51b81526020600482015260036024820152624e4f4f60e81b604482015290519081900360640190fd5b6000816001015411611564576040805162461bcd60e51b815260206004820152600360248201526249544160e81b604482015290519081900360640190fd5b80600201544310156115a3576040805162461bcd60e51b815260206004820152600360248201526215125360ea1b604482015290519081900360640190fd5b600381015460ff16156115e3576040805162461bcd60e51b815260206004820152600360248201526254414360e81b604482015290519081900360640190fd5b80546001820154600091611602916001600160a01b03909116906118b3565b60038301805460ff191660011790558254604080518681526020810184905281519394506001600160a01b03909216927f6368c0a496e295419840d5fc1074f4a2b38e2e71071b0d4a281556d59850755f9281900390910190a2505050565b6116696118af565b6001600160a01b031661167a610744565b6001600160a01b0316146116c3576040805162461bcd60e51b81526020600482018190526024820152600080516020612357833981519152604482015290519081900360640190fd5b7f0000000000000000000000000000000000000000000000000000000000000000431161171d576040805162461bcd60e51b8152602060048201526003602482015262504e4560e81b604482015290519081900360640190fd5b4780611756576040805162461bcd60e51b81526020600482015260036024820152624e454360e81b604482015290519081900360640190fd5b604051339082156108fc029083906000818181858888f19350505050158015610c82573d6000803e3d6000fd5b60055481565b6117916118af565b6001600160a01b03166117a2610744565b6001600160a01b0316146117eb576040805162461bcd60e51b81526020600482018190526024820152600080516020612357833981519152604482015290519081900360640190fd5b6001600160a01b0381166118305760405162461bcd60e51b81526004018080602001828103825260268152602001806122ea6026913960400191505060405180910390fd5b600080546040516001600160a01b03808516939216917f8be0079c531659141344cd1fd0a4f28419497f9722a3daafe3b4186f6b6457e091a3600080546001600160a01b0319166001600160a01b0392909216919091179055565b7f000000000000000000000000000000000000000000000000000000000000000081565b3390565b6000807f00000000000000000000000000000000000000000000000000000000000000006001600160a01b03166370a08231306040518263ffffffff1660e01b815260040180826001600160a01b0316815260200191505060206040518083038186803b15801561192357600080fd5b505afa158015611937573d6000803e3d6000fd5b505050506040513d602081101561194d57600080fd5b50519050828110156119955761198d6001600160a01b037f0000000000000000000000000000000000000000000000000000000000000000168583611fcc565b8091506119cd565b6119c96001600160a01b037f0000000000000000000000000000000000000000000000000000000000000000168585611fcc565b8291505b5092915050565b600082820183811015611a2e576040805162461bcd60e51b815260206004820152601b60248201527f536166654d6174683a206164646974696f6e206f766572666c6f770000000000604482015290519081900360640190fd5b90505b92915050565b600654611a5060ff86850116600a0a610f648887611d9a565b1015611a89576040805162461bcd60e51b81526020600482015260036024820152624c4d4960e81b604482015290519081900360640190fd5b60048054600190810190915560ff8216600090815260209190915260409020546101a4811015611ae6576040805162461bcd60e51b815260206004820152600360248201526227222960e91b604482015290519081900360640190fd5b6000611afd611af6836003611df3565b43906119d4565b90506000606461ffff61012c60ff8784031602160461ffff1690506000611b2882610f648b8a611d9a565b905060007f00000000000000000000000000000000000000000000000000000000000000006001600160a01b031663313ce5676040518163ffffffff1660e01b815260040160206040518083038186803b158015611b8557600080fd5b505afa158015611b99573d6000803e3d6000fd5b505050506040513d6020811015611baf57600080fd5b5051600401905088870160ff80821690831610611bdf57611bd88360ff83850316600a0a611d9a565b9250611bf4565b611bf18360ff84840316600a0a611df3565b92505b604080516370a0823160e01b815230600482015290516001600160a01b037f000000000000000000000000000000000000000000000000000000000000000016916370a08231916024808301926020929190829003018186803b158015611c5a57600080fd5b505afa158015611c6e573d6000803e3d6000fd5b505050506040513d6020811015611c8457600080fd5b505160055484011115611cc4576040805162461bcd60e51b815260206004820152600360248201526213915560ea1b604482015290519081900360640190fd5b6040805160808101825233815260208082018681528284018981526000606085018181526004548252600394859052959020935184546001600160a01b0319166001600160a01b039091161784559051600184015551600283015591519101805460ff1916911515919091179055600554611d3f90846119d4565b60055560045460408051918252602082018590524382820152606082018790525133917faa48fada9497720143a52604062e61c04695381f73d03bccd9a0d5691c7bce7b919081900360800190a25050505050505050505050565b600082611da957506000611a31565b82820282848281611db657fe5b0414611a2e5760405162461bcd60e51b81526004018080602001828103825260218152602001806123366021913960400191505060405180910390fd5b6000808211611e49576040805162461bcd60e51b815260206004820152601a60248201527f536166654d6174683a206469766973696f6e206279207a65726f000000000000604482015290519081900360640190fd5b818381611e5257fe5b049392505050565b801580611ee0575060408051636eb1769f60e11b81523060048201526001600160a01b03848116602483015291519185169163dd62ed3e91604480820192602092909190829003018186803b158015611eb257600080fd5b505afa158015611ec6573d6000803e3d6000fd5b505050506040513d6020811015611edc57600080fd5b5051155b611f1b5760405162461bcd60e51b81526004018080602001828103825260368152602001806123a16036913960400191505060405180910390fd5b604080516001600160a01b038416602482015260448082018490528251808303909101815260649091019091526020810180516001600160e01b031663095ea7b360e01b179052611f6d90849061201a565b505050565b604080516001600160a01b0380861660248301528416604482015260648082018490528251808303909101815260849091019091526020810180516001600160e01b03166323b872dd60e01b17905261133f90859061201a565b604080516001600160a01b038416602482015260448082018490528251808303909101815260649091019091526020810180516001600160e01b031663a9059cbb60e01b179052611f6d9084905b600061206f826040518060400160405280602081526020017f5361666545524332303a206c6f772d6c6576656c2063616c6c206661696c6564815250856001600160a01b03166120cb9092919063ffffffff16565b805190915015611f6d5780806020019051602081101561208e57600080fd5b5051611f6d5760405162461bcd60e51b815260040180806020018281038252602a815260200180612377602a913960400191505060405180910390fd5b60606120da84846000856120e4565b90505b9392505050565b6060824710156121255760405162461bcd60e51b81526004018080602001828103825260268152602001806123106026913960400191505060405180910390fd5b61212e8561223f565b61217f576040805162461bcd60e51b815260206004820152601d60248201527f416464726573733a2063616c6c20746f206e6f6e2d636f6e7472616374000000604482015290519081900360640190fd5b600080866001600160a01b031685876040518082805190602001908083835b602083106121bd5780518252601f19909201916020918201910161219e565b6001836020036101000a03801982511681845116808217855250505050505090500191505060006040518083038185875af1925050503d806000811461221f576040519150601f19603f3d011682016040523d82523d6000602084013e612224565b606091505b5091509150612234828286612245565b979650505050505050565b3b151590565b606083156122545750816120dd565b8251156122645782518084602001fd5b8160405162461bcd60e51b81526004018080602001828103825283818151815260200191508051906020019080838360005b838110156122ae578181015183820152602001612296565b50505050905090810190601f1680156122db5780820380516001836020036101000a031916815260200191505b509250505060405180910390fdfe4f776e61626c653a206e6577206f776e657220697320746865207a65726f2061646472657373416464726573733a20696e73756666696369656e742062616c616e636520666f722063616c6c536166654d6174683a206d756c7469706c69636174696f6e206f766572666c6f774f776e61626c653a2063616c6c6572206973206e6f7420746865206f776e65725361666545524332303a204552433230206f7065726174696f6e20646964206e6f7420737563636565645361666545524332303a20617070726f76652066726f6d206e6f6e2d7a65726f20746f206e6f6e2d7a65726f20616c6c6f77616e6365a26469706673582212205bda6a92bb23fe14825b56d9d823863a9147cb1ff68446ceaf6d29d27d321f1564736f6c63430007060033",
  "linkReferences": {},
  "deployedLinkReferences": {}
}