{
  "_format": "hh-sol-artifact-1",
  "contractName": "Presale",
  "sourceName": "contracts/Presale.sol",
  "abi": [
    {
      "inputs": [
        {
          "internalType": "address",
          "name": "_token",
          "type": "address"
        },
        {
          "internalType": "address",
          "name": "_priceFeed",
          "type": "address"
        },
        {
          "internalType": "uint256",
          "name": "_notBeforeBlock",
          "type": "uint256"
        },
        {
          "internalType": "uint256",
          "name": "_notAfterBlock",
          "type": "uint256"
        }
      ],
      "stateMutability": "nonpayable",
      "type": "constructor"
    },
    {
      "anonymous": false,
      "inputs": [
        {
          "indexed": true,
          "internalType": "address",
          "name": "sender",
          "type": "address"
        },
        {
          "indexed": true,
          "internalType": "uint256",
          "name": "id",
          "type": "uint256"
        },
        {
          "indexed": false,
          "internalType": "uint256",
          "name": "amount",
          "type": "uint256"
        },
        {
          "indexed": false,
          "internalType": "uint256",
          "name": "lockOnBlock",
          "type": "uint256"
        },
        {
          "indexed": false,
          "internalType": "uint256",
          "name": "releaseOnBlock",
          "type": "uint256"
        }
      ],
      "name": "LockTokens",
      "type": "event"
    },
    {
      "anonymous": false,
      "inputs": [
        {
          "indexed": true,
          "internalType": "address",
          "name": "previousOwner",
          "type": "address"
        },
        {
          "indexed": true,
          "internalType": "address",
          "name": "newOwner",
          "type": "address"
        }
      ],
      "name": "OwnershipTransferred",
      "type": "event"
    },
    {
      "anonymous": false,
      "inputs": [
        {
          "indexed": true,
          "internalType": "address",
          "name": "receiver",
          "type": "address"
        },
        {
          "indexed": true,
          "internalType": "uint256",
          "name": "id",
          "type": "uint256"
        },
        {
          "indexed": false,
          "internalType": "uint256",
          "name": "amount",
          "type": "uint256"
        }
      ],
      "name": "UnlockTokens",
      "type": "event"
    },
    {
      "inputs": [
        {
          "internalType": "address",
          "name": "",
          "type": "address"
        }
      ],
      "name": "balanceOf",
      "outputs": [
        {
          "internalType": "uint256",
          "name": "",
          "type": "uint256"
        }
      ],
      "stateMutability": "view",
      "type": "function"
    },
    {
      "inputs": [],
      "name": "collect",
      "outputs": [],
      "stateMutability": "nonpayable",
      "type": "function"
    },
    {
      "inputs": [
        {
          "internalType": "address",
          "name": "fundsAddress",
          "type": "address"
        }
      ],
      "name": "collectFunds",
      "outputs": [],
      "stateMutability": "nonpayable",
      "type": "function"
    },
    {
      "inputs": [
        {
          "internalType": "uint8",
          "name": "",
          "type": "uint8"
        }
      ],
      "name": "discountsLock",
      "outputs": [
        {
          "internalType": "uint256",
          "name": "",
          "type": "uint256"
        }
      ],
      "stateMutability": "view",
      "type": "function"
    },
    {
      "inputs": [],
      "name": "getPrice",
      "outputs": [
        {
          "internalType": "int256",
          "name": "price",
          "type": "int256"
        }
      ],
      "stateMutability": "view",
      "type": "function"
    },
    {
      "inputs": [
        {
          "internalType": "address",
          "name": "fundAddress",
          "type": "address"
        }
      ],
      "name": "getPriceToken",
      "outputs": [
        {
          "internalType": "int256",
          "name": "price",
          "type": "int256"
        }
      ],
      "stateMutability": "view",
      "type": "function"
    },
    {
      "inputs": [
        {
          "internalType": "address",
          "name": "investor",
          "type": "address"
        }
      ],
      "name": "investorOrderIds",
      "outputs": [
        {
          "internalType": "uint256[]",
          "name": "ids",
          "type": "uint256[]"
        }
      ],
      "stateMutability": "view",
      "type": "function"
    },
    {
      "inputs": [],
      "name": "minInvestment",
      "outputs": [
        {
          "internalType": "uint256",
          "name": "",
          "type": "uint256"
        }
      ],
      "stateMutability": "view",
      "type": "function"
    },
    {
      "inputs": [],
      "name": "notAfterBlock",
      "outputs": [
        {
          "internalType": "uint256",
          "name": "",
          "type": "uint256"
        }
      ],
      "stateMutability": "view",
      "type": "function"
    },
    {
      "inputs": [],
      "name": "notBeforeBlock",
      "outputs": [
        {
          "internalType": "uint256",
          "name": "",
          "type": "uint256"
        }
      ],
      "stateMutability": "view",
      "type": "function"
    },
    {
      "inputs": [
        {
          "internalType": "uint8",
          "name": "discountsRate",
          "type": "uint8"
        }
      ],
      "name": "order",
      "outputs": [],
      "stateMutability": "payable",
      "type": "function"
    },
    {
      "inputs": [
        {
          "internalType": "address",
          "name": "fundsAddress",
          "type": "address"
        },
        {
          "internalType": "uint256",
          "name": "fundsAmount",
          "type": "uint256"
        },
        {
          "internalType": "uint8",
          "name": "discountsRate",
          "type": "uint8"
        }
      ],
      "name": "orderToken",
      "outputs": [],
      "stateMutability": "nonpayable",
      "type": "function"
    },
    {
      "inputs": [
        {
          "internalType": "uint256",
          "name": "",
          "type": "uint256"
        }
      ],
      "name": "orders",
      "outputs": [
        {
          "internalType": "address",
          "name": "beneficiary",
          "type": "address"
        },
        {
          "internalType": "uint256",
          "name": "amount",
          "type": "uint256"
        },
        {
          "internalType": "uint256",
          "name": "releaseOnBlock",
          "type": "uint256"
        },
        {
          "internalType": "bool",
          "name": "claimed",
          "type": "bool"
        }
      ],
      "stateMutability": "view",
      "type": "function"
    },
    {
      "inputs": [],
      "name": "owner",
      "outputs": [
        {
          "internalType": "address",
          "name": "",
          "type": "address"
        }
      ],
      "stateMutability": "view",
      "type": "function"
    },
    {
      "inputs": [
        {
          "internalType": "uint256",
          "name": "orderId",
          "type": "uint256"
        }
      ],
      "name": "redeem",
      "outputs": [],
      "stateMutability": "nonpayable",
      "type": "function"
    },
    {
      "inputs": [],
      "name": "remainingTokens",
      "outputs": [
        {
          "internalType": "uint256",
          "name": "remainingToken",
          "type": "uint256"
        }
      ],
      "stateMutability": "view",
      "type": "function"
    },
    {
      "inputs": [],
      "name": "renounceOwnership",
      "outputs": [],
      "stateMutability": "nonpayable",
      "type": "function"
    },
    {
      "inputs": [
        {
          "internalType": "uint256",
          "name": "_minInvestment",
          "type": "uint256"
        }
      ],
      "name": "setMinInvestment",
      "outputs": [],
      "stateMutability": "nonpayable",
      "type": "function"
    },
    {
      "inputs": [
        {
          "internalType": "address",
          "name": "_token",
          "type": "address"
        },
        {
          "internalType": "address",
          "name": "_priceFeed",
          "type": "address"
        }
      ],
      "name": "setSupportedToken",
      "outputs": [],
      "stateMutability": "nonpayable",
      "type": "function"
    },
    {
      "inputs": [
        {
          "internalType": "address",
          "name": "",
          "type": "address"
        }
      ],
      "name": "supportedTokens",
      "outputs": [
        {
          "internalType": "address",
          "name": "priceFeed",
          "type": "address"
        },
        {
          "internalType": "int256",
          "name": "rate",
          "type": "int256"
        },
        {
          "internalType": "uint8",
          "name": "decimals",
          "type": "uint8"
        },
        {
          "internalType": "uint256",
          "name": "raisedAmount",
          "type": "uint256"
        }
      ],
      "stateMutability": "view",
      "type": "function"
    },
    {
      "inputs": [],
      "name": "token",
      "outputs": [
        {
          "internalType": "contract IERC20Metadata",
          "name": "",
          "type": "address"
        }
      ],
      "stateMutability": "view",
      "type": "function"
    },
    {
      "inputs": [],
      "name": "totalDistributed",
      "outputs": [
        {
          "internalType": "uint256",
          "name": "",
          "type": "uint256"
        }
      ],
      "stateMutability": "view",
      "type": "function"
    },
    {
      "inputs": [
        {
          "internalType": "address",
          "name": "newOwner",
          "type": "address"
        }
      ],
      "name": "transferOwnership",
      "outputs": [],
      "stateMutability": "nonpayable",
      "type": "function"
    }
  ],
  "bytecode": "0x61010060405260006006553480156200001757600080fd5b506040516200288338038062002883833981810160405260808110156200003d57600080fd5b508051602082015160408301516060909301519192909160006200006062000227565b600080546001600160a01b0319166001600160a01b0383169081178255604051929350917f8be0079c531659141344cd1fd0a4f28419497f9722a3daafe3b4186f6b6457e0908290a3506001600160a01b03841615801590620000cb57506001600160a01b03831615155b6200011d576040805162461bcd60e51b815260206004820152601860248201527f696e76616c696420636f6e747261637420616464726573730000000000000000604482015290519081900360640190fd5b4282101580156200012d57508181115b6200017f576040805162461bcd60e51b815260206004820152601860248201527f696e76616c69642070726573616c65207363686564756c650000000000000000604482015290519081900360640190fd5b6001600160601b0319606094851b81166080529290931b90911660a05260c05260e05260016020526301e133807f2a32391a76c35a36352b711f9152c0d0a340cd686850c8ef25fbb11c71b89e7b556303c267007f467a5c61216cad3003bc3395c339807c735d5c3d989ca4bc0ef2a37e14ce267955601e6000526305a39a807f68fb8e7cad479ccc9244a179d64897454189fd25db04e15d3a5135327a17597b556200022b565b3390565b60805160601c60a05160601c60c05160e0516125b3620002d06000398061061152806108615280610afd5280610c655280610e53528061102152806110a752806111bb52806113c1528061179052508061057752806105af5280610a9b5280610c035280610df1528061135f525080610b725280610cc752508061144452806119725280611a875280611b6d5280611e0f5280611ebd5280611ef952506125b36000f3fe6080604052600436106101405760003560e01c8063a85c38ef116100b6578063bf5839031161006f578063bf583903146104c4578063db006a75146104d9578063e522538114610503578063efca2eed14610518578063f2fde38b1461052d578063fc0c546a1461056057610140565b8063a85c38ef14610331578063aa6049471461038d578063aaded5a914610410578063b3f7949714610452578063ba7ed2ff14610467578063be5a34b21461049157610140565b8063715018a611610108578063715018a6146102645780638ac2c6801461027b5780638da5cb5b14610290578063900716a3146102c157806396c79039146102fc57806398d5fdca1461031c57610140565b806305293137146101455780633af395f61461016c5780635756eb4f1461019957806368c4ac26146101cc57806370a0823114610231575b600080fd5b34801561015157600080fd5b5061015a610575565b60408051918252519081900360200190f35b34801561017857600080fd5b5061015a6004803603602081101561018f57600080fd5b503560ff16610599565b3480156101a557600080fd5b5061015a600480360360208110156101bc57600080fd5b50356001600160a01b03166105ab565b3480156101d857600080fd5b506101ff600480360360208110156101ef57600080fd5b50356001600160a01b03166106f4565b604080516001600160a01b039095168552602085019390935260ff909116838301526060830152519081900360800190f35b34801561023d57600080fd5b5061015a6004803603602081101561025457600080fd5b50356001600160a01b031661072a565b34801561027057600080fd5b5061027961073c565b005b34801561028757600080fd5b5061015a6107e8565b34801561029c57600080fd5b506102a56107ee565b604080516001600160a01b039092168252519081900360200190f35b3480156102cd57600080fd5b50610279600480360360408110156102e457600080fd5b506001600160a01b03813581169160200135166107fd565b6102796004803603602081101561031257600080fd5b503560ff16610a99565b34801561032857600080fd5b5061015a610bff565b34801561033d57600080fd5b5061035b6004803603602081101561035457600080fd5b5035610d4f565b604080516001600160a01b03909516855260208501939093528383019190915215156060830152519081900360800190f35b34801561039957600080fd5b506103c0600480360360208110156103b057600080fd5b50356001600160a01b0316610d83565b60408051602080825283518183015283519192839290830191858101910280838360005b838110156103fc5781810151838201526020016103e4565b505050509050019250505060405180910390f35b34801561041c57600080fd5b506102796004803603606081101561043357600080fd5b5080356001600160a01b0316906020810135906040013560ff16610def565b34801561045e57600080fd5b5061015a61101f565b34801561047357600080fd5b506102796004803603602081101561048a57600080fd5b5035611043565b34801561049d57600080fd5b50610279600480360360208110156104b457600080fd5b50356001600160a01b0316611157565b3480156104d057600080fd5b5061015a61135b565b3480156104e557600080fd5b50610279600480360360208110156104fc57600080fd5b50356114bc565b34801561050f57600080fd5b5061027961172c565b34801561052457600080fd5b5061015a611868565b34801561053957600080fd5b506102796004803603602081101561055057600080fd5b50356001600160a01b031661186e565b34801561056c57600080fd5b506102a5611970565b7f000000000000000000000000000000000000000000000000000000000000000081565b60016020526000908152604090205481565b60007f0000000000000000000000000000000000000000000000000000000000000000421161060f576040805162461bcd60e51b815260206004820152601d602482015260008051602061236f833981519152604482015290519081900360640190fd5b7f00000000000000000000000000000000000000000000000000000000000000004210610671576040805162461bcd60e51b815260206004820152601a60248201526000805160206123f5833981519152604482015290519081900360640190fd5b6001600160a01b038083166000908152600260209081526040918290205482516350d25bcd60e01b815292519316926350d25bcd926004808201939291829003018186803b1580156106c257600080fd5b505afa1580156106d6573d6000803e3d6000fd5b505050506040513d60208110156106ec57600080fd5b505192915050565b600260208190526000918252604090912080546001820154928201546003909201546001600160a01b03909116929160ff169084565b60036020526000908152604090205481565b610744611994565b6001600160a01b03166107556107ee565b6001600160a01b03161461079e576040805162461bcd60e51b8152602060048201819052602482015260008051602061249a833981519152604482015290519081900360640190fd5b600080546040516001600160a01b03909116907f8be0079c531659141344cd1fd0a4f28419497f9722a3daafe3b4186f6b6457e0908390a3600080546001600160a01b0319169055565b60085481565b6000546001600160a01b031690565b610805611994565b6001600160a01b03166108166107ee565b6001600160a01b03161461085f576040805162461bcd60e51b8152602060048201819052602482015260008051602061249a833981519152604482015290519081900360640190fd5b7f000000000000000000000000000000000000000000000000000000000000000042106108c1576040805162461bcd60e51b815260206004820152601a60248201526000805160206123f5833981519152604482015290519081900360640190fd5b6001600160a01b038216610914576040805162461bcd60e51b8152602060048201526015602482015274696e76616c696420746f6b656e206164647265737360581b604482015290519081900360640190fd5b6001600160a01b0381166109595760405162461bcd60e51b81526004018080602001828103825260218152602001806125056021913960400191505060405180910390fd5b6001600160a01b0382811660009081526002602090815260409182902080546001600160a01b0319169385169384179055815163313ce56760e01b8152915163313ce567926004808201939291829003018186803b1580156109ba57600080fd5b505afa1580156109ce573d6000803e3d6000fd5b505050506040513d60208110156109e457600080fd5b50516001600160a01b03838116600090815260026020818152604092839020909101805460ff191660ff9095169490941790935580516350d25bcd60e01b81529051918416926350d25bcd92600480840193829003018186803b158015610a4a57600080fd5b505afa158015610a5e573d6000803e3d6000fd5b505050506040513d6020811015610a7457600080fd5b50516001600160a01b0390921660009081526002602052604090206001019190915550565b7f00000000000000000000000000000000000000000000000000000000000000004211610afb576040805162461bcd60e51b815260206004820152601d602482015260008051602061236f833981519152604482015290519081900360640190fd5b7f00000000000000000000000000000000000000000000000000000000000000004210610b5d576040805162461bcd60e51b815260206004820152601a60248201526000805160206123f5833981519152604482015290519081900360640190fd5b6000610b67610bff565b9050610bfb346012837f00000000000000000000000000000000000000000000000000000000000000006001600160a01b031663313ce5676040518163ffffffff1660e01b815260040160206040518083038186803b158015610bc957600080fd5b505afa158015610bdd573d6000803e3d6000fd5b505050506040513d6020811015610bf357600080fd5b505186611998565b5050565b60007f00000000000000000000000000000000000000000000000000000000000000004211610c63576040805162461bcd60e51b815260206004820152601d602482015260008051602061236f833981519152604482015290519081900360640190fd5b7f00000000000000000000000000000000000000000000000000000000000000004210610cc5576040805162461bcd60e51b815260206004820152601a60248201526000805160206123f5833981519152604482015290519081900360640190fd5b7f00000000000000000000000000000000000000000000000000000000000000006001600160a01b03166350d25bcd6040518163ffffffff1660e01b815260040160206040518083038186803b158015610d1e57600080fd5b505afa158015610d32573d6000803e3d6000fd5b505050506040513d6020811015610d4857600080fd5b5051919050565b60056020526000908152604090208054600182015460028301546003909301546001600160a01b0390921692909160ff1684565b6001600160a01b0381166000908152600460209081526040808320805482518185028101850190935280835260609493830182828015610de257602002820191906000526020600020905b815481526020019060010190808311610dce575b5093979650505050505050565b7f00000000000000000000000000000000000000000000000000000000000000004211610e51576040805162461bcd60e51b815260206004820152601d602482015260008051602061236f833981519152604482015290519081900360640190fd5b7f00000000000000000000000000000000000000000000000000000000000000004210610eb3576040805162461bcd60e51b815260206004820152601a60248201526000805160206123f5833981519152604482015290519081900360640190fd5b6001600160a01b038316600090815260026020526040902082610f1d576040805162461bcd60e51b815260206004820152601a60248201527f696e76616c696420746f6b656e20616d6f756e742076616c7565000000000000604482015290519081900360640190fd5b80546001600160a01b0316610f635760405162461bcd60e51b81526004018080602001828103825260268152602001806125266026913960400191505060405180910390fd5b610f6c846105ab565b6001820155610f866001600160a01b038516333086611d4d565b6003810154610f959084611da7565b816003018190555061101983856001600160a01b031663313ce5676040518163ffffffff1660e01b815260040160206040518083038186803b158015610fda57600080fd5b505afa158015610fee573d6000803e3d6000fd5b505050506040513d602081101561100457600080fd5b50516001840154600285015460ff1686611998565b50505050565b7f000000000000000000000000000000000000000000000000000000000000000081565b61104b611994565b6001600160a01b031661105c6107ee565b6001600160a01b0316146110a5576040805162461bcd60e51b8152602060048201819052602482015260008051602061249a833981519152604482015290519081900360640190fd5b7f00000000000000000000000000000000000000000000000000000000000000004210611107576040805162461bcd60e51b815260206004820152601a60248201526000805160206123f5833981519152604482015290519081900360640190fd5b60008111611152576040805162461bcd60e51b8152602060048201526013602482015272496e76616c696420696e7075742076616c756560681b604482015290519081900360640190fd5b600855565b61115f611994565b6001600160a01b03166111706107ee565b6001600160a01b0316146111b9576040805162461bcd60e51b8152602060048201819052602482015260008051602061249a833981519152604482015290519081900360640190fd5b7f00000000000000000000000000000000000000000000000000000000000000004211611229576040805162461bcd60e51b81526020600482015260196024820152785072652d73616c65206973207374696c6c206f6e676f696e6760381b604482015290519081900360640190fd5b6000816001600160a01b03166370a08231306040518263ffffffff1660e01b815260040180826001600160a01b0316815260200191505060206040518083038186803b15801561127857600080fd5b505afa15801561128c573d6000803e3d6000fd5b505050506040513d60208110156112a257600080fd5b50519050806112e25760405162461bcd60e51b81526004018080602001828103825260218152602001806124ba6021913960400191505060405180910390fd5b6040805163a9059cbb60e01b81523360048201526024810183905290516001600160a01b0384169163a9059cbb9160448083019260209291908290030181600087803b15801561133157600080fd5b505af1158015611345573d6000803e3d6000fd5b505050506040513d602081101561101957600080fd5b60007f000000000000000000000000000000000000000000000000000000000000000042116113bf576040805162461bcd60e51b815260206004820152601d602482015260008051602061236f833981519152604482015290519081900360640190fd5b7f00000000000000000000000000000000000000000000000000000000000000004210611421576040805162461bcd60e51b815260206004820152601a60248201526000805160206123f5833981519152604482015290519081900360640190fd5b600754604080516370a0823160e01b815230600482015290516001600160a01b037f000000000000000000000000000000000000000000000000000000000000000016916370a08231916024808301926020929190829003018186803b15801561148a57600080fd5b505afa15801561149e573d6000803e3d6000fd5b505050506040513d60208110156114b457600080fd5b505103919050565b600654811115611513576040805162461bcd60e51b815260206004820152601960248201527f746865206f7264657220494420697320696e636f727265637400000000000000604482015290519081900360640190fd5b600081815260056020526040902080546001600160a01b03163314611577576040805162461bcd60e51b81526020600482015260156024820152746e6f74206f726465722062656e656669636961727960581b604482015290519081900360640190fd5b60008160010154116115d0576040805162461bcd60e51b815260206004820152601e60248201527f696e73756666696369656e742072656465656d61626c6520746f6b656e730000604482015290519081900360640190fd5b8060020154421015611629576040805162461bcd60e51b815260206004820152601760248201527f746f6b656e7320617265206265696e67206c6f636b6564000000000000000000604482015290519081900360640190fd5b600381015460ff1615611683576040805162461bcd60e51b815260206004820152601e60248201527f746f6b656e732061726520726561647920746f20626520636c61696d65640000604482015290519081900360640190fd5b805460018201546000916116a2916001600160a01b0390911690611e0a565b6003808401805460ff1916600117905533600090815260209190915260409020549091506116d09082611f2b565b336000908152600360209081526040918290209290925583548151848152915186936001600160a01b03909216927fa9b22fc99b437cca7226a19e7018090ba9124753983abed4abc977f88a37eb5692908290030190a3505050565b611734611994565b6001600160a01b03166117456107ee565b6001600160a01b03161461178e576040805162461bcd60e51b8152602060048201819052602482015260008051602061249a833981519152604482015290519081900360640190fd5b7f000000000000000000000000000000000000000000000000000000000000000042116117fe576040805162461bcd60e51b81526020600482015260196024820152785072652d73616c65206973207374696c6c206f6e676f696e6760381b604482015290519081900360640190fd5b478061183b5760405162461bcd60e51b81526004018080602001828103825260218152602001806124ba6021913960400191505060405180910390fd5b604051339082156108fc029083906000818181858888f19350505050158015610bfb573d6000803e3d6000fd5b60075481565b611876611994565b6001600160a01b03166118876107ee565b6001600160a01b0316146118d0576040805162461bcd60e51b8152602060048201819052602482015260008051602061249a833981519152604482015290519081900360640190fd5b6001600160a01b0381166119155760405162461bcd60e51b81526004018080602001828103825260268152602001806123cf6026913960400191505060405180910390fd5b600080546040516001600160a01b03808516939216917f8be0079c531659141344cd1fd0a4f28419497f9722a3daafe3b4186f6b6457e091a3600080546001600160a01b0319166001600160a01b0392909216919091179055565b7f000000000000000000000000000000000000000000000000000000000000000081565b3390565b6008546119b760ff86850116600a0a6119b18887611f88565b90611fe1565b10156119f45760405162461bcd60e51b815260040180806020018281038252604081526020018061238f6040913960400191505060405180910390fd5b60ff81166000908152600160205260409020546301e13380811015611a4a5760405162461bcd60e51b815260040180806020018281038252603e81526020018061243b603e913960400191505060405180910390fd5b6000611a564283611da7565b90506000606461ffff61012c60ff8784031602160461ffff1690506000611a81826119b18b8a611f88565b905060007f00000000000000000000000000000000000000000000000000000000000000006001600160a01b031663313ce5676040518163ffffffff1660e01b815260040160206040518083038186803b158015611ade57600080fd5b505afa158015611af2573d6000803e3d6000fd5b505050506040513d6020811015611b0857600080fd5b5051600401905088870160ff80821690831610611b3857611b318360ff83850316600a0a611f88565b9250611b4d565b611b4a8360ff84840316600a0a611fe1565b92505b604080516370a0823160e01b815230600482015290516001600160a01b037f000000000000000000000000000000000000000000000000000000000000000016916370a08231916024808301926020929190829003018186803b158015611bb357600080fd5b505afa158015611bc7573d6000803e3d6000fd5b505050506040513d6020811015611bdd57600080fd5b505160075484011115611c215760405162461bcd60e51b815260040180806020018281038252603281526020018061254c6032913960400191505060405180910390fd5b604080516080810182523381526020808201868152828401898152600060608501818152600680546001908101918290559083526005909552959020935184546001600160a01b0319166001600160a01b0390911617845590519183019190915551600282015590516003909101805460ff1916911515919091179055600754611cab9084611da7565b60075533600090815260036020526040902054611cc89084611da7565b3360008181526003602090815260408083209490945560048152838220600680548254600181018455928552938390209091019290925590548351878152429281019290925281840189905292517f1c0faff31a4ddddbe14119049530c0e55d7f79bedfd0e3a74b16098ac66e42e89181900360600190a35050505050505050505050565b604080516001600160a01b0380861660248301528416604482015260648082018490528251808303909101815260849091019091526020810180516001600160e01b03166323b872dd60e01b179052611019908590612048565b600082820183811015611e01576040805162461bcd60e51b815260206004820152601b60248201527f536166654d6174683a206164646974696f6e206f766572666c6f770000000000604482015290519081900360640190fd5b90505b92915050565b6000807f00000000000000000000000000000000000000000000000000000000000000006001600160a01b03166370a08231306040518263ffffffff1660e01b815260040180826001600160a01b0316815260200191505060206040518083038186803b158015611e7a57600080fd5b505afa158015611e8e573d6000803e3d6000fd5b505050506040513d6020811015611ea457600080fd5b5051905082811015611eec57611ee46001600160a01b037f00000000000000000000000000000000000000000000000000000000000000001685836120fe565b809150611f24565b611f206001600160a01b037f00000000000000000000000000000000000000000000000000000000000000001685856120fe565b8291505b5092915050565b600082821115611f82576040805162461bcd60e51b815260206004820152601e60248201527f536166654d6174683a207375627472616374696f6e206f766572666c6f770000604482015290519081900360640190fd5b50900390565b600082611f9757506000611e04565b82820282848281611fa457fe5b0414611e015760405162461bcd60e51b81526004018080602001828103825260218152602001806124796021913960400191505060405180910390fd5b6000808211612037576040805162461bcd60e51b815260206004820152601a60248201527f536166654d6174683a206469766973696f6e206279207a65726f000000000000604482015290519081900360640190fd5b81838161204057fe5b049392505050565b600061209d826040518060400160405280602081526020017f5361666545524332303a206c6f772d6c6576656c2063616c6c206661696c6564815250856001600160a01b03166121509092919063ffffffff16565b8051909150156120f9578080602001905160208110156120bc57600080fd5b50516120f95760405162461bcd60e51b815260040180806020018281038252602a8152602001806124db602a913960400191505060405180910390fd5b505050565b604080516001600160a01b038416602482015260448082018490528251808303909101815260649091019091526020810180516001600160e01b031663a9059cbb60e01b1790526120f9908490612048565b606061215f8484600085612169565b90505b9392505050565b6060824710156121aa5760405162461bcd60e51b81526004018080602001828103825260268152602001806124156026913960400191505060405180910390fd5b6121b3856122c4565b612204576040805162461bcd60e51b815260206004820152601d60248201527f416464726573733a2063616c6c20746f206e6f6e2d636f6e7472616374000000604482015290519081900360640190fd5b600080866001600160a01b031685876040518082805190602001908083835b602083106122425780518252601f199092019160209182019101612223565b6001836020036101000a03801982511681845116808217855250505050505090500191505060006040518083038185875af1925050503d80600081146122a4576040519150601f19603f3d011682016040523d82523d6000602084013e6122a9565b606091505b50915091506122b98282866122ca565b979650505050505050565b3b151590565b606083156122d9575081612162565b8251156122e95782518084602001fd5b8160405162461bcd60e51b81526004018080602001828103825283818151815260200191508051906020019080838360005b8381101561233357818101518382015260200161231b565b50505050905090810190601f1680156123605780820380516001836020036101000a031916815260200191505b509250505060405180910390fdfe5072652d73616c6520686173206e6f74206265656e207374617274656400000074686520696e766573746d656e7420616d6f756e7420646f6573206e6f7420726561636820746865206d696e696d756d20616d6f756e742072657175697265644f776e61626c653a206e6577206f776e657220697320746865207a65726f20616464726573735072652d73616c652068617320616c726561647920656e646564000000000000416464726573733a20696e73756666696369656e742062616c616e636520666f722063616c6c746865206c6f636b206475726174696f6e20646f6573206e6f7420726561636820746865206d696e696d756d206475726174696f6e207265717569726564536166654d6174683a206d756c7469706c69636174696f6e206f766572666c6f774f776e61626c653a2063616c6c6572206973206e6f7420746865206f776e6572696e73756666696369656e742066756e647320666f7220636f6c6c656374696f6e5361666545524332303a204552433230206f7065726174696f6e20646964206e6f742073756363656564696e76616c6964206f7261636c652070726963652066656564206164647265737370757263686173696e67206f6620746f6b656e7320776173206e6f7420737570706f727465647468657265206973206e6f7420656e6f75676820737570706c7920746f6b656e20746f206265206469737472696275746564a264697066735822122088e0ca256f6eeacc823ec3e664b5c41d810700a6935f5b1f3f2659d3ae1b3c1064736f6c63430007060033",
  "linkReferences": {},
  "deployedLinkReferences": {}
}