{
  "_format": "hh-sol-artifact-1",
  "contractName": "Presale",
  "sourceName": "contracts/Presale.sol",
  "abi": [
    {
      "inputs": [
        {
          "internalType": "address",
          "name": "_token",
          "type": "address"
        },
        {
          "internalType": "address",
          "name": "_priceFeed",
          "type": "address"
        },
        {
          "internalType": "uint256",
          "name": "_notBeforeBlock",
          "type": "uint256"
        },
        {
          "internalType": "uint256",
          "name": "_notAfterBlock",
          "type": "uint256"
        }
      ],
      "stateMutability": "nonpayable",
      "type": "constructor"
    },
    {
      "anonymous": false,
      "inputs": [
        {
          "indexed": true,
          "internalType": "address",
          "name": "sender",
          "type": "address"
        },
        {
          "indexed": true,
          "internalType": "uint256",
          "name": "id",
          "type": "uint256"
        },
        {
          "indexed": false,
          "internalType": "uint256",
          "name": "amount",
          "type": "uint256"
        },
        {
          "indexed": false,
          "internalType": "uint256",
          "name": "lockOnBlock",
          "type": "uint256"
        },
        {
          "indexed": false,
          "internalType": "uint256",
          "name": "releaseOnBlock",
          "type": "uint256"
        }
      ],
      "name": "LockTokens",
      "type": "event"
    },
    {
      "anonymous": false,
      "inputs": [
        {
          "indexed": true,
          "internalType": "address",
          "name": "previousOwner",
          "type": "address"
        },
        {
          "indexed": true,
          "internalType": "address",
          "name": "newOwner",
          "type": "address"
        }
      ],
      "name": "OwnershipTransferred",
      "type": "event"
    },
    {
      "anonymous": false,
      "inputs": [
        {
          "indexed": true,
          "internalType": "address",
          "name": "receiver",
          "type": "address"
        },
        {
          "indexed": true,
          "internalType": "uint256",
          "name": "id",
          "type": "uint256"
        },
        {
          "indexed": false,
          "internalType": "uint256",
          "name": "amount",
          "type": "uint256"
        }
      ],
      "name": "UnlockTokens",
      "type": "event"
    },
    {
      "inputs": [
        {
          "internalType": "address",
          "name": "",
          "type": "address"
        }
      ],
      "name": "balanceOf",
      "outputs": [
        {
          "internalType": "uint256",
          "name": "",
          "type": "uint256"
        }
      ],
      "stateMutability": "view",
      "type": "function"
    },
    {
      "inputs": [],
      "name": "collect",
      "outputs": [],
      "stateMutability": "nonpayable",
      "type": "function"
    },
    {
      "inputs": [
        {
          "internalType": "address",
          "name": "fundsAddress",
          "type": "address"
        }
      ],
      "name": "collectFunds",
      "outputs": [],
      "stateMutability": "nonpayable",
      "type": "function"
    },
    {
      "inputs": [
        {
          "internalType": "uint8",
          "name": "",
          "type": "uint8"
        }
      ],
      "name": "discountsLock",
      "outputs": [
        {
          "internalType": "uint256",
          "name": "",
          "type": "uint256"
        }
      ],
      "stateMutability": "view",
      "type": "function"
    },
    {
      "inputs": [],
      "name": "getPrice",
      "outputs": [
        {
          "internalType": "int256",
          "name": "price",
          "type": "int256"
        }
      ],
      "stateMutability": "view",
      "type": "function"
    },
    {
      "inputs": [
        {
          "internalType": "address",
          "name": "fundAddress",
          "type": "address"
        }
      ],
      "name": "getPriceToken",
      "outputs": [
        {
          "internalType": "int256",
          "name": "price",
          "type": "int256"
        }
      ],
      "stateMutability": "view",
      "type": "function"
    },
    {
      "inputs": [
        {
          "internalType": "address",
          "name": "investor",
          "type": "address"
        }
      ],
      "name": "investorOrderIds",
      "outputs": [
        {
          "internalType": "uint256[]",
          "name": "ids",
          "type": "uint256[]"
        }
      ],
      "stateMutability": "view",
      "type": "function"
    },
    {
      "inputs": [],
      "name": "minInvestment",
      "outputs": [
        {
          "internalType": "uint256",
          "name": "",
          "type": "uint256"
        }
      ],
      "stateMutability": "view",
      "type": "function"
    },
    {
      "inputs": [],
      "name": "notAfterBlock",
      "outputs": [
        {
          "internalType": "uint256",
          "name": "",
          "type": "uint256"
        }
      ],
      "stateMutability": "view",
      "type": "function"
    },
    {
      "inputs": [],
      "name": "notBeforeBlock",
      "outputs": [
        {
          "internalType": "uint256",
          "name": "",
          "type": "uint256"
        }
      ],
      "stateMutability": "view",
      "type": "function"
    },
    {
      "inputs": [
        {
          "internalType": "uint8",
          "name": "discountsRate",
          "type": "uint8"
        }
      ],
      "name": "order",
      "outputs": [],
      "stateMutability": "payable",
      "type": "function"
    },
    {
      "inputs": [
        {
          "internalType": "address",
          "name": "fundsAddress",
          "type": "address"
        },
        {
          "internalType": "uint256",
          "name": "fundsAmount",
          "type": "uint256"
        },
        {
          "internalType": "uint8",
          "name": "discountsRate",
          "type": "uint8"
        }
      ],
      "name": "orderToken",
      "outputs": [],
      "stateMutability": "nonpayable",
      "type": "function"
    },
    {
      "inputs": [
        {
          "internalType": "uint256",
          "name": "",
          "type": "uint256"
        }
      ],
      "name": "orders",
      "outputs": [
        {
          "internalType": "address",
          "name": "beneficiary",
          "type": "address"
        },
        {
          "internalType": "uint256",
          "name": "amount",
          "type": "uint256"
        },
        {
          "internalType": "uint256",
          "name": "releaseOnBlock",
          "type": "uint256"
        },
        {
          "internalType": "bool",
          "name": "claimed",
          "type": "bool"
        }
      ],
      "stateMutability": "view",
      "type": "function"
    },
    {
      "inputs": [],
      "name": "owner",
      "outputs": [
        {
          "internalType": "address",
          "name": "",
          "type": "address"
        }
      ],
      "stateMutability": "view",
      "type": "function"
    },
    {
      "inputs": [
        {
          "internalType": "uint256",
          "name": "orderId",
          "type": "uint256"
        }
      ],
      "name": "redeem",
      "outputs": [],
      "stateMutability": "nonpayable",
      "type": "function"
    },
    {
      "inputs": [],
      "name": "remainingTokens",
      "outputs": [
        {
          "internalType": "uint256",
          "name": "remainingToken",
          "type": "uint256"
        }
      ],
      "stateMutability": "view",
      "type": "function"
    },
    {
      "inputs": [],
      "name": "renounceOwnership",
      "outputs": [],
      "stateMutability": "nonpayable",
      "type": "function"
    },
    {
      "inputs": [
        {
          "internalType": "address",
          "name": "_to",
          "type": "address"
        },
        {
          "internalType": "uint256",
          "name": "_amount",
          "type": "uint256"
        }
      ],
      "name": "rewardRemainingTokens",
      "outputs": [],
      "stateMutability": "nonpayable",
      "type": "function"
    },
    {
      "inputs": [
        {
          "internalType": "uint256",
          "name": "_minInvestment",
          "type": "uint256"
        }
      ],
      "name": "setMinInvestment",
      "outputs": [],
      "stateMutability": "nonpayable",
      "type": "function"
    },
    {
      "inputs": [
        {
          "internalType": "address",
          "name": "_token",
          "type": "address"
        },
        {
          "internalType": "address",
          "name": "_priceFeed",
          "type": "address"
        }
      ],
      "name": "setSupportedToken",
      "outputs": [],
      "stateMutability": "nonpayable",
      "type": "function"
    },
    {
      "inputs": [
        {
          "internalType": "address",
          "name": "",
          "type": "address"
        }
      ],
      "name": "supportedTokens",
      "outputs": [
        {
          "internalType": "address",
          "name": "priceFeed",
          "type": "address"
        },
        {
          "internalType": "int256",
          "name": "rate",
          "type": "int256"
        },
        {
          "internalType": "uint8",
          "name": "decimals",
          "type": "uint8"
        },
        {
          "internalType": "uint256",
          "name": "raisedAmount",
          "type": "uint256"
        }
      ],
      "stateMutability": "view",
      "type": "function"
    },
    {
      "inputs": [],
      "name": "token",
      "outputs": [
        {
          "internalType": "contract IERC20Metadata",
          "name": "",
          "type": "address"
        }
      ],
      "stateMutability": "view",
      "type": "function"
    },
    {
      "inputs": [],
      "name": "totalDistributed",
      "outputs": [
        {
          "internalType": "uint256",
          "name": "",
          "type": "uint256"
        }
      ],
      "stateMutability": "view",
      "type": "function"
    },
    {
      "inputs": [
        {
          "internalType": "address",
          "name": "newOwner",
          "type": "address"
        }
      ],
      "name": "transferOwnership",
      "outputs": [],
      "stateMutability": "nonpayable",
      "type": "function"
    }
  ],
  "bytecode": "0x61010060405260006006553480156200001757600080fd5b506040516200274338038062002743833981810160405260808110156200003d57600080fd5b5080516020820151604083015160609093015191929091600062000060620001ed565b600080546001600160a01b0319166001600160a01b0383169081178255604051929350917f8be0079c531659141344cd1fd0a4f28419497f9722a3daafe3b4186f6b6457e0908290a3506001600160a01b03841615801590620000cb57506001600160a01b03831615155b62000103576040805162461bcd60e51b815260206004820152600360248201526249434160e81b604482015290519081900360640190fd5b4382101580156200011357508181115b6200014b576040805162461bcd60e51b815260206004820152600360248201526249505360e81b604482015290519081900360640190fd5b6001600160601b0319606094851b81166080529290931b90911660a05260c05260e05260016020526101a47f2a32391a76c35a36352b711f9152c0d0a340cd686850c8ef25fbb11c71b89e7b556103487f467a5c61216cad3003bc3395c339807c735d5c3d989ca4bc0ef2a37e14ce267955601e6000526104ec7f68fb8e7cad479ccc9244a179d64897454189fd25db04e15d3a5135327a17597b55620001f1565b3390565b60805160601c60a05160601c60c05160e0516124a86200029b6000398061064d528061089552806109f15280610c6a5280610dc25280610fa0528061114752806111cd52806112c852806114ac52806117f95250806105bb52806105f35280610c105280610d685280610f465280611452525080610cd75280610e1c52508061152752806119c152806119ec5280611a9a5280611ad65280611c685280611d4e52506124a86000f3fe60806040526004361061014b5760003560e01c8063a85c38ef116100b6578063bf5839031161006f578063bf58390314610508578063db006a751461051d578063e522538114610547578063efca2eed1461055c578063f2fde38b14610571578063fc0c546a146105a45761014b565b8063a85c38ef14610375578063aa604947146103d1578063aaded5a914610454578063b3f7949714610496578063ba7ed2ff146104ab578063be5a34b2146104d55761014b565b80638ac2c680116101085780638ac2c680146102865780638da5cb5b1461029b5780638dd5b063146102cc578063900716a31461030557806396c790391461034057806398d5fdca146103605761014b565b806305293137146101505780633af395f6146101775780635756eb4f146101a457806368c4ac26146101d757806370a082311461023c578063715018a61461026f575b600080fd5b34801561015c57600080fd5b506101656105b9565b60408051918252519081900360200190f35b34801561018357600080fd5b506101656004803603602081101561019a57600080fd5b503560ff166105dd565b3480156101b057600080fd5b50610165600480360360208110156101c757600080fd5b50356001600160a01b03166105ef565b3480156101e357600080fd5b5061020a600480360360208110156101fa57600080fd5b50356001600160a01b0316610728565b604080516001600160a01b039095168552602085019390935260ff909116838301526060830152519081900360800190f35b34801561024857600080fd5b506101656004803603602081101561025f57600080fd5b50356001600160a01b031661075e565b34801561027b57600080fd5b50610284610770565b005b34801561029257600080fd5b5061016561081c565b3480156102a757600080fd5b506102b0610822565b604080516001600160a01b039092168252519081900360200190f35b3480156102d857600080fd5b50610284600480360360408110156102ef57600080fd5b506001600160a01b038135169060200135610831565b34801561031157600080fd5b506102846004803603604081101561032857600080fd5b506001600160a01b038135811691602001351661098d565b6102846004803603602081101561035657600080fd5b503560ff16610c0e565b34801561036c57600080fd5b50610165610d64565b34801561038157600080fd5b5061039f6004803603602081101561039857600080fd5b5035610ea4565b604080516001600160a01b03909516855260208501939093528383019190915215156060830152519081900360800190f35b3480156103dd57600080fd5b50610404600480360360208110156103f457600080fd5b50356001600160a01b0316610ed8565b60408051602080825283518183015283519192839290830191858101910280838360005b83811015610440578181015183820152602001610428565b505050509050019250505060405180910390f35b34801561046057600080fd5b506102846004803603606081101561047757600080fd5b5080356001600160a01b0316906020810135906040013560ff16610f44565b3480156104a257600080fd5b50610165611145565b3480156104b757600080fd5b50610284600480360360208110156104ce57600080fd5b5035611169565b3480156104e157600080fd5b50610284600480360360208110156104f857600080fd5b50356001600160a01b0316611264565b34801561051457600080fd5b5061016561144e565b34801561052957600080fd5b506102846004803603602081101561054057600080fd5b503561159f565b34801561055357600080fd5b50610284611795565b34801561056857600080fd5b506101656118b7565b34801561057d57600080fd5b506102846004803603602081101561059457600080fd5b50356001600160a01b03166118bd565b3480156105b057600080fd5b506102b06119bf565b7f000000000000000000000000000000000000000000000000000000000000000081565b60016020526000908152604090205481565b60007f0000000000000000000000000000000000000000000000000000000000000000431161064b576040805162461bcd60e51b8152602060048201526003602482015262504e5360e81b604482015290519081900360640190fd5b7f000000000000000000000000000000000000000000000000000000000000000043106106a5576040805162461bcd60e51b81526020600482015260036024820152622822a760e91b604482015290519081900360640190fd5b6001600160a01b038083166000908152600260209081526040918290205482516350d25bcd60e01b815292519316926350d25bcd926004808201939291829003018186803b1580156106f657600080fd5b505afa15801561070a573d6000803e3d6000fd5b505050506040513d602081101561072057600080fd5b505192915050565b600260208190526000918252604090912080546001820154928201546003909201546001600160a01b03909116929160ff169084565b60036020526000908152604090205481565b6107786119e3565b6001600160a01b0316610789610822565b6001600160a01b0316146107d2576040805162461bcd60e51b81526020600482018190526024820152600080516020612429833981519152604482015290519081900360640190fd5b600080546040516001600160a01b03909116907f8be0079c531659141344cd1fd0a4f28419497f9722a3daafe3b4186f6b6457e0908390a3600080546001600160a01b0319169055565b60085481565b6000546001600160a01b031690565b6108396119e3565b6001600160a01b031661084a610822565b6001600160a01b031614610893576040805162461bcd60e51b81526020600482018190526024820152600080516020612429833981519152604482015290519081900360640190fd5b7f000000000000000000000000000000000000000000000000000000000000000043116108ed576040805162461bcd60e51b8152602060048201526003602482015262504e4560e81b604482015290519081900360640190fd5b6001600160a01b03821661092e576040805162461bcd60e51b815260206004820152600360248201526249414160e81b604482015290519081900360640190fd5b60008111610969576040805162461bcd60e51b815260206004820152600360248201526224a0ab60e91b604482015290519081900360640190fd5b600061097583836119e7565b6007549091506109859082611b08565b600755505050565b6109956119e3565b6001600160a01b03166109a6610822565b6001600160a01b0316146109ef576040805162461bcd60e51b81526020600482018190526024820152600080516020612429833981519152604482015290519081900360640190fd5b7f00000000000000000000000000000000000000000000000000000000000000004310610a49576040805162461bcd60e51b81526020600482015260036024820152622822a760e91b604482015290519081900360640190fd5b6001600160a01b038216610a8a576040805162461bcd60e51b815260206004820152600360248201526249544160e81b604482015290519081900360640190fd5b6001600160a01b038116610ace576040805162461bcd60e51b81526020600480830191909152602482015263494f504160e01b604482015290519081900360640190fd5b6001600160a01b0382811660009081526002602090815260409182902080546001600160a01b0319169385169384179055815163313ce56760e01b8152915163313ce567926004808201939291829003018186803b158015610b2f57600080fd5b505afa158015610b43573d6000803e3d6000fd5b505050506040513d6020811015610b5957600080fd5b50516001600160a01b03838116600090815260026020818152604092839020909101805460ff191660ff9095169490941790935580516350d25bcd60e01b81529051918416926350d25bcd92600480840193829003018186803b158015610bbf57600080fd5b505afa158015610bd3573d6000803e3d6000fd5b505050506040513d6020811015610be957600080fd5b50516001600160a01b0390921660009081526002602052604090206001019190915550565b7f00000000000000000000000000000000000000000000000000000000000000004311610c68576040805162461bcd60e51b8152602060048201526003602482015262504e5360e81b604482015290519081900360640190fd5b7f00000000000000000000000000000000000000000000000000000000000000004310610cc2576040805162461bcd60e51b81526020600482015260036024820152622822a760e91b604482015290519081900360640190fd5b6000610ccc610d64565b9050610d60346012837f00000000000000000000000000000000000000000000000000000000000000006001600160a01b031663313ce5676040518163ffffffff1660e01b815260040160206040518083038186803b158015610d2e57600080fd5b505afa158015610d42573d6000803e3d6000fd5b505050506040513d6020811015610d5857600080fd5b505186611b6b565b5050565b60007f00000000000000000000000000000000000000000000000000000000000000004311610dc0576040805162461bcd60e51b8152602060048201526003602482015262504e5360e81b604482015290519081900360640190fd5b7f00000000000000000000000000000000000000000000000000000000000000004310610e1a576040805162461bcd60e51b81526020600482015260036024820152622822a760e91b604482015290519081900360640190fd5b7f00000000000000000000000000000000000000000000000000000000000000006001600160a01b03166350d25bcd6040518163ffffffff1660e01b815260040160206040518083038186803b158015610e7357600080fd5b505afa158015610e87573d6000803e3d6000fd5b505050506040513d6020811015610e9d57600080fd5b5051919050565b60056020526000908152604090208054600182015460028301546003909301546001600160a01b0390921692909160ff1684565b6001600160a01b0381166000908152600460209081526040808320805482518185028101850190935280835260609493830182828015610f3757602002820191906000526020600020905b815481526020019060010190808311610f23575b5093979650505050505050565b7f00000000000000000000000000000000000000000000000000000000000000004311610f9e576040805162461bcd60e51b8152602060048201526003602482015262504e5360e81b604482015290519081900360640190fd5b7f00000000000000000000000000000000000000000000000000000000000000004310610ff8576040805162461bcd60e51b81526020600482015260036024820152622822a760e91b604482015290519081900360640190fd5b6001600160a01b038316600090815260026020526040902082611047576040805162461bcd60e51b815260206004820152600260248201526124ab60f11b604482015290519081900360640190fd5b80546001600160a01b0316611089576040805162461bcd60e51b8152602060048201526003602482015262464e5360e81b604482015290519081900360640190fd5b611092846105ef565b60018201556110ac6001600160a01b038516333086611f1e565b60038101546110bb9084611b08565b816003018190555061113f83856001600160a01b031663313ce5676040518163ffffffff1660e01b815260040160206040518083038186803b15801561110057600080fd5b505afa158015611114573d6000803e3d6000fd5b505050506040513d602081101561112a57600080fd5b50516001840154600285015460ff1686611b6b565b50505050565b7f000000000000000000000000000000000000000000000000000000000000000081565b6111716119e3565b6001600160a01b0316611182610822565b6001600160a01b0316146111cb576040805162461bcd60e51b81526020600482018190526024820152600080516020612429833981519152604482015290519081900360640190fd5b7f00000000000000000000000000000000000000000000000000000000000000004310611225576040805162461bcd60e51b81526020600482015260036024820152622822a760e91b604482015290519081900360640190fd5b6000811161125f576040805162461bcd60e51b815260206004820152600260248201526124ab60f11b604482015290519081900360640190fd5b600855565b61126c6119e3565b6001600160a01b031661127d610822565b6001600160a01b0316146112c6576040805162461bcd60e51b81526020600482018190526024820152600080516020612429833981519152604482015290519081900360640190fd5b7f00000000000000000000000000000000000000000000000000000000000000004311611320576040805162461bcd60e51b8152602060048201526003602482015262504e4560e81b604482015290519081900360640190fd5b6000816001600160a01b03166370a08231306040518263ffffffff1660e01b815260040180826001600160a01b0316815260200191505060206040518083038186803b15801561136f57600080fd5b505afa158015611383573d6000803e3d6000fd5b505050506040513d602081101561139957600080fd5b50519050806113d5576040805162461bcd60e51b81526020600482015260036024820152624e454360e81b604482015290519081900360640190fd5b6040805163a9059cbb60e01b81523360048201526024810183905290516001600160a01b0384169163a9059cbb9160448083019260209291908290030181600087803b15801561142457600080fd5b505af1158015611438573d6000803e3d6000fd5b505050506040513d602081101561113f57600080fd5b60007f000000000000000000000000000000000000000000000000000000000000000043116114aa576040805162461bcd60e51b8152602060048201526003602482015262504e5360e81b604482015290519081900360640190fd5b7f00000000000000000000000000000000000000000000000000000000000000004310611504576040805162461bcd60e51b81526020600482015260036024820152622822a760e91b604482015290519081900360640190fd5b600754604080516370a0823160e01b815230600482015290516001600160a01b037f000000000000000000000000000000000000000000000000000000000000000016916370a08231916024808301926020929190829003018186803b15801561156d57600080fd5b505afa158015611581573d6000803e3d6000fd5b505050506040513d602081101561159757600080fd5b505103919050565b6006548111156115dc576040805162461bcd60e51b8152602060048201526003602482015262494f4960e81b604482015290519081900360640190fd5b600081815260056020526040902080546001600160a01b0316331461162e576040805162461bcd60e51b81526020600482015260036024820152624e4f4f60e81b604482015290519081900360640190fd5b600081600101541161166d576040805162461bcd60e51b815260206004820152600360248201526249544160e81b604482015290519081900360640190fd5b80600201544310156116ac576040805162461bcd60e51b815260206004820152600360248201526215125360ea1b604482015290519081900360640190fd5b600381015460ff16156116ec576040805162461bcd60e51b815260206004820152600360248201526254414360e81b604482015290519081900360640190fd5b8054600182015460009161170b916001600160a01b03909116906119e7565b6003808401805460ff1916600117905533600090815260209190915260409020549091506117399082611f78565b336000908152600360209081526040918290209290925583548151848152915186936001600160a01b03909216927fa9b22fc99b437cca7226a19e7018090ba9124753983abed4abc977f88a37eb5692908290030190a3505050565b61179d6119e3565b6001600160a01b03166117ae610822565b6001600160a01b0316146117f7576040805162461bcd60e51b81526020600482018190526024820152600080516020612429833981519152604482015290519081900360640190fd5b7f00000000000000000000000000000000000000000000000000000000000000004311611851576040805162461bcd60e51b8152602060048201526003602482015262504e4560e81b604482015290519081900360640190fd5b478061188a576040805162461bcd60e51b81526020600482015260036024820152624e454360e81b604482015290519081900360640190fd5b604051339082156108fc029083906000818181858888f19350505050158015610d60573d6000803e3d6000fd5b60075481565b6118c56119e3565b6001600160a01b03166118d6610822565b6001600160a01b03161461191f576040805162461bcd60e51b81526020600482018190526024820152600080516020612429833981519152604482015290519081900360640190fd5b6001600160a01b0381166119645760405162461bcd60e51b81526004018080602001828103825260268152602001806123bc6026913960400191505060405180910390fd5b600080546040516001600160a01b03808516939216917f8be0079c531659141344cd1fd0a4f28419497f9722a3daafe3b4186f6b6457e091a3600080546001600160a01b0319166001600160a01b0392909216919091179055565b7f000000000000000000000000000000000000000000000000000000000000000081565b3390565b6000807f00000000000000000000000000000000000000000000000000000000000000006001600160a01b03166370a08231306040518263ffffffff1660e01b815260040180826001600160a01b0316815260200191505060206040518083038186803b158015611a5757600080fd5b505afa158015611a6b573d6000803e3d6000fd5b505050506040513d6020811015611a8157600080fd5b5051905082811015611ac957611ac16001600160a01b037f0000000000000000000000000000000000000000000000000000000000000000168583611fd5565b809150611b01565b611afd6001600160a01b037f0000000000000000000000000000000000000000000000000000000000000000168585611fd5565b8291505b5092915050565b600082820183811015611b62576040805162461bcd60e51b815260206004820152601b60248201527f536166654d6174683a206164646974696f6e206f766572666c6f770000000000604482015290519081900360640190fd5b90505b92915050565b600854611b8a60ff86850116600a0a611b84888761202c565b90612085565b1015611bc3576040805162461bcd60e51b81526020600482015260036024820152624c4d4960e81b604482015290519081900360640190fd5b60068054600190810190915560ff8216600090815260209190915260409020546101a4811015611c20576040805162461bcd60e51b815260206004820152600360248201526227222960e91b604482015290519081900360640190fd5b6000611c37611c30836003612085565b4390611b08565b90506000606461ffff61012c60ff8784031602160461ffff1690506000611c6282611b848b8a61202c565b905060007f00000000000000000000000000000000000000000000000000000000000000006001600160a01b031663313ce5676040518163ffffffff1660e01b815260040160206040518083038186803b158015611cbf57600080fd5b505afa158015611cd3573d6000803e3d6000fd5b505050506040513d6020811015611ce957600080fd5b5051600401905088870160ff80821690831610611d1957611d128360ff83850316600a0a61202c565b9250611d2e565b611d2b8360ff84840316600a0a612085565b92505b604080516370a0823160e01b815230600482015290516001600160a01b037f000000000000000000000000000000000000000000000000000000000000000016916370a08231916024808301926020929190829003018186803b158015611d9457600080fd5b505afa158015611da8573d6000803e3d6000fd5b505050506040513d6020811015611dbe57600080fd5b505160075484011115611dfe576040805162461bcd60e51b815260206004820152600360248201526213915560ea1b604482015290519081900360640190fd5b6040805160808101825233815260208082018681528284018981526000606085018181526006548252600590945294909420925183546001600160a01b0319166001600160a01b039091161783555160018301559151600282015590516003909101805460ff1916911515919091179055600754611e7c9084611b08565b60075533600090815260036020526040902054611e999084611b08565b3360008181526003602090815260408083209490945560048152838220600680548254600181018455928552938390209091019290925590548351878152439281019290925281840189905292517f1c0faff31a4ddddbe14119049530c0e55d7f79bedfd0e3a74b16098ac66e42e89181900360600190a35050505050505050505050565b604080516001600160a01b0380861660248301528416604482015260648082018490528251808303909101815260849091019091526020810180516001600160e01b03166323b872dd60e01b17905261113f9085906120ec565b600082821115611fcf576040805162461bcd60e51b815260206004820152601e60248201527f536166654d6174683a207375627472616374696f6e206f766572666c6f770000604482015290519081900360640190fd5b50900390565b604080516001600160a01b038416602482015260448082018490528251808303909101815260649091019091526020810180516001600160e01b031663a9059cbb60e01b1790526120279084906120ec565b505050565b60008261203b57506000611b65565b8282028284828161204857fe5b0414611b625760405162461bcd60e51b81526004018080602001828103825260218152602001806124086021913960400191505060405180910390fd5b60008082116120db576040805162461bcd60e51b815260206004820152601a60248201527f536166654d6174683a206469766973696f6e206279207a65726f000000000000604482015290519081900360640190fd5b8183816120e457fe5b049392505050565b6000612141826040518060400160405280602081526020017f5361666545524332303a206c6f772d6c6576656c2063616c6c206661696c6564815250856001600160a01b031661219d9092919063ffffffff16565b8051909150156120275780806020019051602081101561216057600080fd5b50516120275760405162461bcd60e51b815260040180806020018281038252602a815260200180612449602a913960400191505060405180910390fd5b60606121ac84846000856121b6565b90505b9392505050565b6060824710156121f75760405162461bcd60e51b81526004018080602001828103825260268152602001806123e26026913960400191505060405180910390fd5b61220085612311565b612251576040805162461bcd60e51b815260206004820152601d60248201527f416464726573733a2063616c6c20746f206e6f6e2d636f6e7472616374000000604482015290519081900360640190fd5b600080866001600160a01b031685876040518082805190602001908083835b6020831061228f5780518252601f199092019160209182019101612270565b6001836020036101000a03801982511681845116808217855250505050505090500191505060006040518083038185875af1925050503d80600081146122f1576040519150601f19603f3d011682016040523d82523d6000602084013e6122f6565b606091505b5091509150612306828286612317565b979650505050505050565b3b151590565b606083156123265750816121af565b8251156123365782518084602001fd5b8160405162461bcd60e51b81526004018080602001828103825283818151815260200191508051906020019080838360005b83811015612380578181015183820152602001612368565b50505050905090810190601f1680156123ad5780820380516001836020036101000a031916815260200191505b509250505060405180910390fdfe4f776e61626c653a206e6577206f776e657220697320746865207a65726f2061646472657373416464726573733a20696e73756666696369656e742062616c616e636520666f722063616c6c536166654d6174683a206d756c7469706c69636174696f6e206f766572666c6f774f776e61626c653a2063616c6c6572206973206e6f7420746865206f776e65725361666545524332303a204552433230206f7065726174696f6e20646964206e6f742073756363656564a26469706673582212207fcbe11006354649ccdd9667ac5c433f36e560126b483272dc856cecdc4310d864736f6c63430007060033",
  "linkReferences": {},
  "deployedLinkReferences": {}
}